:100000000C9412010C943A010C943A010C943A01AC
:100010000C943A010C943A010C943A010C943A0174
:100020000C943A010C943A010C943A010C943A0164
:100030000C943A010C943A010C943A010C943A0154
:100040000C94641B0C943A010C940D150C94E71459
:100050000C943A010C943A010C943A010C943A0134
:100060000C9429090C943A0100407A10F35A00A02C
:10007000724E18090010A5D4E80000E87648170071
:1000800000E40B54020000CA9A3B000000E1F505B1
:10009000000080969800000040420F000000A086FB
:1000A00001000000102700000000E803000000002D
:1000B0006400000000000A000000000001000000D1
:1000C00000002C76D888DC674F0823DFC1DFAE59EB
:1000D000E1B1B796E5E3E453C63AE651997696E87E
:1000E000E6C28426EB898C9B62ED407C6FFCEFBC02
:1000F0009C9F40F2BAA56FA5F490055A2AF75C932D
:100100006B6CF9676DC11BFCE0E40D47FEF520E662
:10011000B500D0ED902E0300943577050080841E45
:10012000080000204E0A000000C80C333333330FA0
:10013000986E12831141EF8D2114893BE65516CF3D
:10014000FEE6DB18D1844B381BF77C1D901DA4BB49
:10015000E424203284725E228100C9F124ECA1E5FE
:100160003D277777772E6D617572697A696F74654F
:100170007272656E692E616C7465727669737461F2
:100180002E6F72670063825363000108000604004B
:100190000145000082000040002000000000240013
:1001A00027002A0000000000250028002B0004047E
:1001B000040404040404020202020202030303030F
:1001C00003030102040810204080010204081020EB
:1001D00001020408102000000008000201000003D2
:1001E00004070000000000000000474554202F775E
:1001F0006561746865722F61726475696E6F2E70C7
:1002000068703F646174613D244820485454502F05
:10021000312E300D0A486F73743A2024460D0A0DB2
:100220000A00A22211241FBECFEFD8E0DEBFCDBF4F
:1002300028E0A0E9B1E001C01D92AB3FB207E1F7B1
:1002400011E0A0E0B1E0E6EEF5E502C005900D9208
:10025000A039B107D9F711E0C2E1D1E004C021977C
:10026000FE010E94B828C131D107C9F70E94AE1B18
:100270000C94F12A0C9400008EBD00000DB407FE12
:10028000FDCF8EB508958FEF0C943C010895E09159
:10029000F9078091F807E81730F4F0E0E15EFD4FD0
:1002A000808190E008958FEF9FEF08959091F90776
:1002B0008091F807981750F4E92FF0E0E15EFD4FC8
:1002C000208130E09F5F9093F90702C02FEF3FEF4E
:1002D000C90108958091F80790E02091F907821BE9
:1002E0009109089585ED8093BC008091BC0084FD48
:1002F000FCCF1092F50708954091B401262F30E00D
:10030000240F311D21323105DCF42091F507243012
:10031000C9F4FC0180E090E0861758F43091B401F4
:100320002191DC01AE56BE4FA30FB11D2C93019657
:10033000F3CF8091B401680F6093B40180E0089519
:1003400081E0089582E00895CF92DF92EF92FF92CC
:100350000F931F93CF93DF937C01262F972F8A0152
:1003600080911E02882391F0C62FD72F6E01C40EF4
:10037000D51ECC15DD0571F06991D701ED91FC9189
:100380000190F081E02DC7010995F3CF642F822FF2
:100390000E947C01C801DF91CF911F910F91FF90C6
:1003A000EF90DF90CF900895CF93DF931F92CDB75A
:1003B000DEB7698320911E022223D1F02091F60737
:1003C000203240F021E030E0FC013383228380E0E2
:1003D00090E015C08091F707E82FF0E0E250FE4F63
:1003E000998190838F5F8093F7078093F60705C00C
:1003F00061E0CE0101960E947C0181E090E00F90C7
:10040000DF91CF910895089580E090E008950F93D3
:100410001F93CF93DF93EB010E94581B8B010E9427
:1004200043018F3F49F00E94581B601B710B6C17F2
:100430007D07A8F380E001C081E0DF91CF911F919B
:100440000F91089561E0FC0184810E94701A8091EF
:100450003F02811110923F020895CF93DF93EC0188
:100460008E81882389F08F8198859C012F5F3F4F73
:1004700038872F838230924018F40E944301F3CFD3
:10048000CE010E9422021E82DF91CF910895CF9269
:10049000DF92FF920F931F93CF93DF9300D000D092
:1004A000CDB7DEB76C01F62E29833A834B835C838C
:1004B0000E942D0280913F0229813A814B815C810B
:1004C000811109C081E080933F029091970880914B
:1004D00098089CBD8DBD60E0F601848129833A8334
:1004E0004B835C830E94701A6CE271E0C6010E942B
:1004F00007028F2D80640E943C0108E110E05C81BE
:100500004B813A812981DA01C901002E04C0B695D8
:10051000A795979587950A94D2F729833A834B83B9
:100520005C830E943C010850110929813A814B816A
:100530005C81083FFFEF1F0731F7FF2029F088E0BB
:10054000F81204C087E803C085E901C08FEF0E945C
:100550003C0110E00E944301F601828787FF04C03E
:100560001F3F11F01F5FF6CF0F900F900F900F906D
:10057000DF91CF911F910F91FF90DF90CF90089561
:10058000EF92FF920F931F93CF93DF93EC017901CA
:10059000411551056105710511F482E13CC08B855F
:1005A000833039F089E0440F551F661F771F8A9505
:1005B000D1F79A01AB0168E1CE010E94470288237E
:1005C00011F084E028C08EEF0E943C0187018EEF7D
:1005D000F81AF80181918F010E943C010E151F0548
:1005E000C1F78FEF0E943C018FEF0E943C010E94F7
:1005F00043018A878F71853031F081E18D83CE018F
:100600000E94220209C068E572E0CE010E94070242
:10061000811107C085E18D83CE010E94220280E016
:1006200013C020E030E0A9016DE0CE010E94470236
:10063000811104C00E944301882311F084E1EBCFB3
:10064000CE010E94220281E0DF91CF911F910F9194
:10065000FF90EF900895CF93DF938091420288231B
:1006600099F1C0914002D091410240910001509116
:100670000101609102017091030127E432E0CE0193
:100680000E94C002811102C080E01FC0409143025D
:100690005091440260914502709146024115510506
:1006A0006105710579F027E432E0CE010E94C002B5
:1006B000882351F310924302109244021092450293
:1006C000109246021092420281E0DF91CF9108958C
:1006D000BF92CF92DF92EF92FF920F931F93CF932F
:1006E000DF936B017C01B42E809100019091010198
:1006F000A0910201B09103018C159D05AE05BF05C7
:1007000009F476C00E942B03882309F478C0C091B5
:100710004002D09141028E81882369F088819981BD
:10072000AA81BB81C816D906EA06FB0621F48F818F
:100730009885892BB1F1C882D982EA82FB828B85A8
:10074000A7019601833039F089E0220F331F441F3F
:10075000551F8A95D1F761E1CE010E944702882397
:1007600019F083E08D8337C00E94581B8B010E94D3
:1007700043018A878F3F49F40E94581B601B710B0D
:100780006D327140A0F38FE003C08E3F31F08DE0F9
:100790008D83CE010E9422021EC018861F8281E036
:1007A0008E8307E412E00E944301F80181938F01D8
:1007B000F4E007341F07B9F78F8198859E5F98870B
:1007C0008F832985222319F08115924048F0CE01AC
:1007D0000E942D0205C0CE010E94220280E00FC0BF
:1007E000C0920001D0920101E0920201F092030157
:1007F00080914202482F4B294093420281E0DF91D1
:10080000CF911F910F91FF90EF90DF90CF90BF900D
:1008100008954F925F926F927F928F929F92AF92C4
:10082000BF92CF92DF92EF92FF920F931F93CF93DD
:10083000DF93EC016A017B01280139014230510547
:100840006105710510F480E073C089859A85AB85D8
:10085000BC850196A11DB11D84179507A607B70792
:1008600090F38B889C88AD88BE888F89803129F46D
:10087000BB27AF2D9E2D8D2D09C0DB01CA0147E09E
:10088000B695A795979587954A95D1F7880E991EA5
:10089000AA1EBB1E8091000190910101A09102014E
:1008A000B091030188169906AA06BB0679F48F89D0
:1008B0008031A1F4DD24EE24FF24C601880F991FA6
:1008C000FC01E95BFD4F5182408219C040E0C50147
:1008D000B4010E9468038111EACFB5CFE894C7F84C
:1008E000DD24EE24FF24C601880F991F880F991F6D
:1008F000FC01E95BFD4F40825182628273828091EC
:1009000042028160809342028A89823080F08D8128
:100910009E81AF81B885880E991EAA1EBB1E80924B
:10092000430290924402A0924502B092460281E0B6
:10093000DF91CF911F910F91FF90EF90DF90CF90BB
:10094000BF90AF909F908F907F906F905F904F90EF
:1009500008958F929F92AF92BF92CF92DF92EF92C3
:10096000FF920F931F93CF93DF93FC0181859285B4
:10097000A385B4850196A11DB11D84179507A6070F
:10098000B70710F480E05CC083899489A589B68993
:10099000C789C03129F4852E962EA72EBB2409C005
:1009A0004A015B01C7E0B694A79497948794CA95CF
:1009B000D1F7E9016A017B018F01BC01CD01680D0E
:1009C000791D8A1D9B1D8090000190900101A090CF
:1009D0000201B0900301681579058A059B0599F419
:1009E000F80187898031A9F4B701A6015527662748
:1009F0007727440F551FFA01E95BFD4F80819181F4
:100A0000A0E0B0E018C040E00E9468038111E8CF88
:100A1000B9CFB701A6014F77552766277727440F2F
:100A2000551F440F551FFA01E95BFD4F80819181ED
:100A3000A281B381BF7088839983AA83BB8381E03D
:100A4000DF91CF911F910F91FF90EF90DF90CF90AA
:100A5000BF90AF909F908F9008953F924F925F927A
:100A60006F927F928F929F92AF92BF92CF92DF92BE
:100A7000EF92FF920F931F93CF93DF93CDB7DEB723
:100A80002C970FB6F894DEBF0FBECDBF5C01DC0122
:100A90005B968D909C905C971696CD90DD90ED9036
:100AA000FC901997C114D104E104F10439F0BFEFAF
:100AB000CB1ADB0AEB0AFB0A312C07C0F401C08019
:100AC000D180E280F38033243394F40181859285D0
:100AD000A385B4859C01AD012F5F3F4F4F4F5F4F02
:100AE00029873A874B875C87260137011D821E8242
:100AF0001F821886F40181859285A385B4852D8196
:100B00003E814F815885281739074A075B0708F04F
:100B100063C089859A85AB85BC858C159D05AE051E
:100B2000BF0550F482E0C82ED12CE12CF12C92E0CC
:100B3000492E512C612C712C9E012F5F3F4FB70124
:100B4000A601C4010E94A904882309F445C0898133
:100B50009A81AB81BC81892B8A2B8B2B41F026019A
:100B600037019FEF491A590A690A790A05C0C41466
:100B7000D504E604F70491F02D813E814F8158851C
:100B80002F5F3F4F4F4F5F4F2D833E834F835887DB
:100B90003FEFC31AD30AE30AF30AACCF0FEF1FEFFC
:100BA0002FEF3FE0B301A201C4010E940904882392
:100BB00099F0D50116964D915D916D917C911997A3
:100BC000411551056105710549F093018201C40188
:100BD0000E940904811102C080E02AC0D501169646
:100BE0004D925D926D927C921997332051F0D30112
:100BF000C2010196A11DB11DF40180839183A283DE
:100C0000B383F5018789908DA18DB28D892B8A2BB5
:100C10008B2B69F4D50157964D925D926D927C9223
:100C20005A9714968C911497806814968C9381E04F
:100C30002C960FB6F894DEBF0FBECDBFDF91CF91DB
:100C40001F910F91FF90EF90DF90CF90BF90AF90EA
:100C50009F908F907F906F905F904F903F900895FE
:100C60004F925F926F927F928F929F92AF92BF92BC
:100C7000EF92FF920F931F93CF93DF9300D000D09A
:100C80001F92CDB7DEB78C016D83DC0115968C9178
:100C90001597813009F057C014968C9181FF53C08D
:100CA0005AC0038CF48DE02D258530E0275F3F4F3F
:100CB0002A013B01B1E04B1A510861087108022E6C
:100CC00004C076946794579447940A94D2F7D50158
:100CD000C4010197A109B10904C0B695A7959795DC
:100CE00087952A95D2F784159505A605B70508F0CE
:100CF00070C0F8014789508D618D728D468357838E
:100D0000608771872C013D017801E6E0EE0EF11C51
:100D1000D801411451046104710409F464C01696A9
:100D20004D915D916D917C91199797015B968D9195
:100D30009C915C970E94A904B1E04B1A510861088C
:100D400071088111E5CF81E090E0F80193838283FF
:100D500080E090E04FC182FF0EC0F80142855385CC
:100D60006485758583889488A588B6884815590553
:100D70006A057B05F1F4D8011A964D915D916D914C
:100D80007C911D975B968D919C915C97FC01748082
:100D90007A944A015B0129E0B694A79497948794CA
:100DA0002A95D1F778207A01F1E0FF22772011F11E
:100DB00064C081149104A104B10409F072CF1682B9
:100DC000178210861186F8011286138614861586FE
:100DD000D2CF452B462B472B09F48BCF841995098D
:100DE000A609B7098FCF1A968D929D92AD92BC92AB
:100DF0001D97C1CFE114F10409F03FC0F80146810D
:100E0000578160857185411551056105710549F46A
:100E10008789908DA18DB28D0097A105B10541F50F
:100E200021C09E012F5F3F4F0E94A904882309F42F
:100E30008FCF89819A81AB81BC81F801238D348D5C
:100E4000F9012789203129F048EF5FEF6FEF7FE04C
:100E500004C048EF5FEF60E070E084179507A607D5
:100E6000B70730F0C8010E942D05811106C06BCF75
:100E7000F80186839783A087B187D8015B96ED91AF
:100E8000FC915C9716968D909D90AD90BC901997B3
:100E9000B2E08B1A9108A108B108058404C0880C3F
:100EA000991CAA1CBB1C0A94D2F786859785A08939
:100EB000B189880E991EAA1EBB1E870C911CA11C0D
:100EC000B11CE114F10409F5F801428553856485EC
:100ED000758583899489A589B689481759076A0752
:100EE0007B0798F00E942B03882309F42CCF809273
:100EF000000190920101A0920201B0920301809141
:100F0000420281608093420208C041E0C501B40101
:100F10000E946803882309F416CFF701E95BFD4FAF
:100F20008D818083F80182859385A485B58501969E
:100F3000A11DB11D82879387A487B58743895489F2
:100F400065897689481759076A077B0738F4838BC8
:100F5000948BA58BB68B848180688483D80114968A
:100F60008C9183FD03C081E090E044C0F80195813D
:100F7000992309F4E8CE87FF38C066857785808994
:100F8000918941E00E946803882309F4DCCED801EE
:100F90005296EC91B0E2EB9F90011124D901A95B2C
:100FA000BD4F109709F4CFCEF8018581823050F4FF
:100FB00043895489658976895C964D935D936D93D9
:100FC0007C935F97F8018789908DA18DB28DF9018F
:100FD000E95BFD4F938F828FB58BA48BD80114965C
:100FE0008C9114978F7714968C930E942B03811108
:100FF000BACFA9CE0F900F900F900F900F90DF9166
:10100000CF911F910F91FF90EF90BF90AF909F9065
:101010008F907F906F905F904F900895CF93DF9364
:10102000EAE4F4E020E030E0A22F9191992351F11D
:1010300040E050E0692F70E0842FEB01042E02C0E5
:10104000D595C7950A94E2F7C0FF17C0F901E65B92
:10105000FB4F41E050E060E070E0082E04C0440F18
:10106000551F661F771F0A94D2F7409594239083EB
:1010700098E0A99F800D11240BC04F5F5F4F48304F
:101080005105D1F62F5F3F4F2730310569F680E0DB
:10109000DF91CF9108951F93CF93DF93EC01162F2B
:1010A0006E8180E00E943411E091A70781E08E0FED
:1010B000F0E0E759F84F10838F3318F48093A707B7
:1010C00010C00E940E088093A8078E83682F80E0CE
:1010D0000E9434111092A8071092A7078C818F5F8D
:1010E0008C8381E090E0DF91CF911F910895209152
:1010F000F6079091FD01213208F04AC08091F50772
:101100008111FCCF32E03093F50731E03093F407E2
:101110003FEF3093FC011092FB012093FA01AEEFF8
:10112000B1E04AED51E0FA013E2F341B321718F4BA
:101130003D913193F9CF1092D9012091D901990FA6
:10114000922B9093D9019091F307913061F4109212
:10115000F3079091D9019093BB009091BC0093FD4F
:10116000F8CF95EC01C095EE9093BC009091F507F7
:101170009230E1F39091FC019F3F79F08091FC0166
:10118000803241F08091FC01803331F084E005C071
:1011900081E003C082E001C083E01092F707109263
:1011A000F60710921E02089581E080931E0260935C
:1011B000FD011092F7071092F60708958091F50748
:1011C0008111FCCF842F413208F080E291E09093AE
:1011D000F5079093F4072FEF2093FC011092FB0189
:1011E000280F2093FA019093D9019091D901660FAD
:1011F000692B6093D9019091F307913061F41092BB
:10120000F3079091D9019093BB009091BC0093FD9E
:10121000F8CF95EC01C095EE9093BC009091F50746
:101220009130E1F39091FB01981710F48091FB014C
:10123000AAEDB1E02FE132E0F9019E2F921B981741
:1012400018F49D919193F9CF1092F9078093F807C4
:1012500008951F920F920FB60F9211242F933F9370
:101260004F935F936F937F938F939F93AF93BF93AE
:10127000EF93FF938091B900887F803609F49CC07A
:1012800068F5883209F45BC090F4803109F454C0E9
:1012900038F4882309F4F6C0883009F44DC0F6C04C
:1012A000883109F44CC0803209F45DC0EFC080344D
:1012B00009F468C048F4803309F455C0883309F054
:1012C000E5C08093FC01D8C0803509F44FC0883553
:1012D00009F45DC0883409F0D9C0D6C0883909F452
:1012E000C7C0A8F4883709F467C038F4883609F411
:1012F00063C0803709F460C0C9C0883809F4B8C039
:10130000803909F45FC0803809F0C0C05BC0803B01
:1013100009F486C038F4803A09F466C0883A09F4C2
:101320007FC0B4C0803C09F4A7C0883C09F4A4C0C5
:10133000883B09F48AC0AAC08091D90110C090915D
:10134000FB018091FA01981770F5E091FB0181E0B3
:101350008E0F8093FB01F0E0E652FE4F8081809378
:10136000BB0085EC86C08093FC018EC0E091FB0140
:1013700081E08E0F8093FB018091BB00F0E0E6528C
:10138000FE4F80839091FB018091FA016EC0E09145
:10139000FB0181E08E0F8093FB018091BB00F0E0A8
:1013A000E652FE4F80838091F40781116DC081E089
:1013B0008093F30784EA61C083E08093F50710927D
:1013C000D801CFCF8091D801803208F051C0E09190
:1013D000D80181E08E0F8093D8018091BB00F0E0AE
:1013E000E854FE4F8083BDCF85EC8093BC00109203
:1013F000F5078091D801803230F4E091D801F0E017
:10140000E854FE4F10826091D80170E0E091B6017F
:10141000F091B70188EB91E009951092D80136C0A0
:1014200084E08093F5071092B5011092B401E09129
:10143000B201F091B30109958091B401811105C009
:1014400081E08093B40110929201E091B50181E0B6
:101450008E0F8093B501F0E0EE56FE4F80818093B1
:10146000BB009091B5018091B401981708F479CF31
:1014700085E88093BC000AC085EC8093BC00109284
:10148000F50704C01092FC010E947201FF91EF91D8
:10149000BF91AF919F918F917F916F915F914F918C
:1014A0003F912F910F900FBE0F901F901895CF93E3
:1014B000DF938091900190919101892B09F07BC07D
:1014C0008DE190E00E94BE28EC0183E290E09C8FC9
:1014D0008B8F83E088830E94BC1A60EDCE010E944E
:1014E0007215853509F042C06AEACE010E943F15A7
:1014F0009A8389836CEACE010E943F159C838B837B
:101500006EEACE010E943F159E838D8360EBCE0173
:101510000E943F159A8B898B62EBCE010E943F158A
:101520009C8B8B8B64EBCE010E943F159E8B8D8B29
:1015300066EBCE010E943F1598878F8368EBCE0142
:101540000E943F159A8789876AEBCE010E943F155A
:101550009C878B876CEBCE010E943F159E878D8701
:101560006EEBCE010E943F15988B8F8789E998E03A
:10157000998F888F86E08A8F0E94BC1A68E3888DD5
:10158000998D0E94D408888D998DDC01ED91FC9194
:101590000190F081E02D6A8D0995888D998D0E94CA
:1015A000770864EF71E080E090E00E941E1BD0930A
:1015B0009101C09390018091900190919101DF91F0
:1015C000CF910895CF92DF92EF92FF920F931F93E6
:1015D0008634910568F120918204233449F5C09046
:1015E0008D04D0908E04E0908F04F09090040091D0
:1015F0003E0710913F072091400730914107C016E8
:10160000D106E206F306A1F4E9E7F5E0815A9B4F23
:101610009F012E5F3F4F41815081553319F4528114
:10162000561741F0F901E40FF11DE817F90780F3AF
:1016300080E001C081E01F910F91FF90EF90DF905B
:10164000CF900895E0913707F09138079F012F5F01
:101650003F4F309338072093370780830895EF92E8
:10166000FF920F931F93CF93DF931F92CDB7DEB7F7
:10167000062F142F59830E94220B802F0E94220BC9
:10168000E12E5981F52E100F1E1531F0F7018191D1
:101690007F010E94220BF8CF0F90DF91CF911F9115
:1016A0000F91FF90EF900895CF93DF93EB0144E00B
:1016B00050E0BC018BE794E00E94BA2A892B39F4F0
:1016C00065E774E0CE010E94361681E001C080E03B
:1016D000DF91CF91089580916F0490E0982F882733
:1016E00020917004822B449720918D0430E044E0D7
:1016F000359527954A95E1F7220F331F220F331FA7
:10170000821B930B97FF02C080E090E00895209128
:1017100083043091810430938304209381042091C9
:10172000840430918204309384042093820429E855
:1017300034E0ADE8B4E0F9014291840F911D4E917F
:101740008C93662311F0408301C01082892F992762
:1017500044E04E0F4213F0CF109291041092920485
:1017600080E580938D040895BC018FE594E00E948C
:10177000361668E574E085E694E00C943616CF934F
:10178000DF9300D0CDB7DEB769837A830E94B40BB4
:1017900069817A818DE794E00E943E166FEE77E0D2
:1017A00089E794E00F900F90DF91CF910C943E1653
:1017B000EF92FF920F931F93CF93DF93182F092F70
:1017C000EB01F42EE52ECB010E946119BE018823A6
:1017D00019F082E597E002C088E597E00E94BF0B10
:1017E0002881207F203E91F088819981AA81BB8148
:1017F0008F3F9F4FAF4FBF4F49F044E050E0BE01D5
:1018000081E594E00E94BA2A892B31F463E371E008
:101810008FE594E00E94361688E080936B04109266
:101820006C0449E050E061E971E08DE694E00E94CB
:10183000162310926F0481E180937604E092830472
:10184000F092840400938104109382041092850422
:101850001092870410928804DF91CF911F910F910D
:10186000FF90EF9008950F931F93CF93DF9370E055
:10187000615A7B4F213021F48A01075F1F4F0CC052
:10188000223039F000E010E09801DB011196EA0106
:1018900006C08A010250110920E030E0F6CFC230C4
:1018A000D10578F0FD013197E081F0E0FE2FEE27C1
:1018B0009C91E92B0E0F1F1F211D311D229712969F
:1018C000EECFFA01EE7FE60FF71F40FF0CC040811C
:1018D00050E060E070E0762F652F542F4427040F0E
:1018E000151F261F371FA9016627772741155105A8
:1018F0006105710519F022273327F1CF0095109566
:10190000E82FF0E0E15AFB4F10830183DF91CF9184
:101910001F910F910895EFE5F4E0108E118E80E491
:10192000848B158A868B20E044E150E06EE088E1EC
:101930000C94330C85E694E00E94B40B69E774E0E4
:101940008DE794E00E943E166FEE77E089E794E021
:101950000E943E160C948B0C8EBD0DB407FEFDCF7D
:10196000089561E0809147040E94701A7894089568
:10197000F89460E0809147040C94701A0F931F93C1
:10198000CF93DF93EC018B010E94B80C209731F4C8
:10199000DF91CF911F910F910C94B10C8AE70E94B7
:1019A000AC0CF80181918EBDC00FD11FEC17FD0763
:1019B00031F081910DB407FEFDCF8EBDF7CF0DB490
:1019C00007FEFDCFE5CF0F931F93CF93DF93EC017D
:1019D0008B010E94B80C2097B9F08AE30E94AC0CEE
:1019E0001EBCF801CE01019739F00DB407FEFDCF02
:1019F0002EB51EBC2193F7CF2197C00FD11F0DB478
:101A000007FEFDCF8EB58883DF91CF911F910F9197
:101A10000C94B10CCF93DF9300D01F92CDB7DEB7FB
:101A20004B836A8389830E94B80C6A816F718981B4
:101A3000862B0E94AC0C4B81842F0E94AC0C0F9023
:101A40000F900F90DF91CF910C94B10C1F93CF9317
:101A5000DF93182F1076C12FD0E020914E0730E091
:101A6000C217D307A1F043E06FE180EA0E940A0D9C
:101A700010934E07AE0185E0559547958A95E1F79D
:101A80006FE180E8DF91CF911F910C940A0DDF91F7
:101A9000CF911F9108951F93CF93DF931F92CDB7DE
:101AA000DEB7182F69830E94260D4981612F80E4DB
:101AB0000F90DF91CF911F910C940A0D1F93CF933C
:101AC000DF931F92CDB7DEB7182F79830E944B0D9D
:101AD0007981672F81E0810F0F90DF91CF911F9166
:101AE0000C944B0DCF93DF931F92CDB7DEB71982C5
:101AF00020E4829FC00111249E5E9C01260F311DAF
:101B0000B901C901925181159E4050F480E00E94B4
:101B10005E0DBE016F5F7F4F81E090E00E94E30C9D
:101B200089810F90DF91CF9108951F93CF93DF9319
:101B30001F92CDB7DEB7182F0E94260D0E94B80C59
:101B4000812F8F710E94AC0C80E00E94AC0C17FFBB
:101B500003C080E00E94AC0C8EB589830E94B10C5A
:101B600089810F90DF91CF911F9108950F931F935B
:101B7000CF93DF9300D000D000D0CDB7DEB78091F7
:101B80005107882389F060914F07709150076115C4
:101B9000710519F46FEF7BE002C0615071098CE0B0
:101BA0000E945E0D1092510789E30E94950D8823D3
:101BB000C9F160914F077091500780E00E945E0D5F
:101BC000BE016F5F7F4F86E090E00E94E30C898149
:101BD0009A819093500780934F070B811C818091CD
:101BE0004804909149042D8127FF0DC001970450AE
:101BF00011098017910708F48C016FE574E0C801A2
:101C00000E94E30C02C000E010E0F801E15AFB4F33
:101C1000108281E08093510740E46EE180E80E94E9
:101C20000A0D02C000E010E0C80126960FB6F89435
:101C3000DEBF0FBECDBFDF91CF911F910F910895F1
:101C4000CF93DF93EC0140E86FE180E80E940A0D3A
:101C500040E86FE180EA0E940A0D4AE06CE180EA08
:101C60000E940A0D60E07CE082E00E945E0DBE01F1
:101C7000745F86E00E945E0D40E060E08AE70E94AB
:101C80000A0D6FE574E0CE010E94BE0C48E06FE1E2
:101C900080E80E940A0DC0E0D0E08CE10E94950D22
:101CA0008A7029F42196C83E83E0D807B1F78CE109
:101CB0000E94950D81FD03C0C83ED34039F448E031
:101CC0006FE180EADF91CF910C940A0DDF91CF9103
:101CD00008950F931F93CF938C0183E391E00E94AB
:101CE000B40BEFE5F4E088E08487C6E0C58748E000
:101CF00050E069E871E08DE694E00E941623EFE77A
:101D0000F4E0DF011D92CA95E9F768E574E085E724
:101D100094E00E943616B80185E894E00E943E16D1
:101D20006FEE77E08BE794E00E943E168AE290E047
:101D3000CF911F910F910C94200E0F931F93CF936F
:101D4000DF93EC010FE514E04C96F801908B818B4A
:101D50000E948B0CCE010896F80196A387A3AE01D2
:101D6000405F5F4F21E06AE188E20E94330CCE01C0
:101D70008A96DF91CF911F910F910C94200EFF92C4
:101D80000F931F93CF93DF938C0186E191E0EFE5F2
:101D9000F4E0DF019C011D9221503040E1F7809179
:101DA0005704833019F063E371E002C069E377E020
:101DB00043E450E084E490E00E94D80B63E371E0D8
:101DC0008FE594E00E94361681E080938904809329
:101DD0008A0486E080938B0480913E0790913F07B0
:101DE000A0914007B091410780938D0490938E0499
:101DF000A0938F04B093900480915704833031F402
:101E00006FEE77E085E994E00E943E1668E574E0A5
:101E100085EA94E00E94361685E795E090933807AE
:101E200080933707C5E8D1E0FC2E34E0F30EFE01C5
:101E300084910E94220B2196FC12F9CF85E30E9427
:101E4000220B81E00E94220B80915704882311F01D
:101E500083E001C081E00E94220B8DE30E94220BEF
:101E600087E00E94220B81E00E94220BC8E5D4E0AB
:101E7000FC2E26E0F20EFC1621F089910E94220B26
:101E8000FACF80910401882371F0E4E0F1E0019041
:101E90000020E9F73197BF016450714044E051E000
:101EA0008CE00E942F0B0115110559F0A80164E088
:101EB00082E30E942F0B49E357E064E086E30E942F
:101EC0002F0B87E30E94220B83E00E94220B81E00C
:101ED0000E94220B83E00E94220B86E00E94220BCC
:101EE0008FEF0E94220B8091370790913807895815
:101EF0009440DF91CF911F910F91FF900C949D0E14
:101F0000262F206120938E04643021F0009711F475
:101F100081E090E061E00E94870B10926F0488E2FC
:101F2000809370040E949A0C84E080938F04109236
:101F3000900422E04CE150E06AE182E30E94330C1D
:101F400086E390E00C94200E61E184ED0E944B0D3D
:101F500061E082ED0E944B0D8AEE0E94950D80FD9E
:101F6000FBCF60E082ED0E944B0D89ED0E94950D44
:101F700082FB882780F90895CF92DF92EF92FF923B
:101F80000F931F93CF93DF9300D000D0CDB7DEB770
:101F90008C0180915704823009F480C030F488238A
:101FA000A9F1813009F452C035C1833021F0843069
:101FB00009F474C02FC1C0904A07D0904B07E0903D
:101FC0004C07F0904D072FEFC216D206E206F2063C
:101FD00009F420C10E94581B009146071091470741
:101FE0002091480730914907DC01CB01801B910B00
:101FF000A20BB30B8C159D05AE05BF0508F40AC1F5
:102000008FEE97E00E94BF0E84E0F8C00E94581B3C
:1020100060933E0770933F0780934007909341077A
:102020001092EF071092F0071092F1071092F2074A
:1020300080E090E00E94BF0E88E30E94950D682F1B
:10204000616088E30E944B0D81E0D8C062E0C80166
:102050000E94E20A882341F169E974E0CE01019609
:102060000E943E16E9E7F5E0015A1B4FBF016E5F83
:102070007F4F81819081963329F489E397E00E9414
:102080003E1606C0FB01E80FF11DE017F10770F3E3
:10209000CE0101960E94BF0E82E0B0C065E0C8018B
:1020A0000E94E20A811119C00E94581B0091420748
:1020B000109143072091440730914507DC01CB0183
:1020C000801B910BA20BB30B81319742A105B10587
:1020D00008F4A0C0109257049DC080913D07811163
:1020E00008C088E30E94950D682F6E7F88E30E94E8
:1020F0004B0D69E974E08FEE97E00E943E16E9E728
:10210000F5E0015A1B4F7F0182E0E80EF11CD180FF
:1021100080818630A9F048F4813071F0833009F075
:1021200045C0B7018EE597E00EC08A3379F08F3F46
:10213000D9F18333D9F50AC0B7018BEE97E003C01C
:10214000B70181E297E00E943E1630C0D701369673
:1021500020E030E0A9018D91742F632F522F442786
:102160009A01AB01280F311D411D511DAE17BF074C
:1021700091F720934A0730934B0740934C075093B5
:102180004D072F3F8FEF38074807580779F0A8EE23
:10219000B3E00E94EC2660934A0770934B0780934C
:1021A0004C0790934D0702C081E001C080E0F70129
:1021B000ED0DF11D811104C0E017F10708F4A3CF64
:1021C0000E94581B60934607709347078093480707
:1021D0009093490780915E07882361F0109256041E
:1021E0001092550481E080931F076EE577E0CB01E4
:1021F0000E943E1683E0809357040CC080935704DE
:102200000E94581B609342077093430780934407D2
:10221000909345070F900F900F900F90DF91CF9103
:102220001F910F91FF90EF90DF90CF900895CF9383
:10223000DF93EC01FB018A30910548F06AE070E021
:102240000E945B28CB01BF010E941711FC01CE0147
:102250006AE070E00E945B28805D80831182CF017C
:102260000196DF91CF910895EF92FF920F931F9304
:10227000CF93E82EF12C21E4829F8001112407598D
:10228000184FF801E05CFF4F9081691709F44CC0CA
:10229000C62F811119C020E4929FC0011124BC01F6
:1022A0007E5E813C9D4040F482E00E945E0DB8015C
:1022B00080E490E00E94BE0C8091EA07C81312C02F
:1022C0008FEF8093EA070EC08091A90768130AC0B8
:1022D00081E4E9E6F7E0AAEAB7E001900D928A9579
:1022E000E1F722C081E48E9D80018F9D100D1124A5
:1022F0000759184FF801E05CFF4FC08320E4C29FEC
:10230000C0011124BC017E5E813C9D4068F480E0E8
:102310000E945E0DB80180E490E0CF911F910F9173
:10232000FF90EF900C94E30CCF911F910F91FF90D1
:10233000EF900895CF93DF93EC016F8383E088875C
:1023400081E00E9434118091AA079091AB07A0917F
:10235000AC078C839D83AE838F81DF91CF910895ED
:102360004F925F926F927F928F929F92AF92BF92A5
:10237000CF92DF92EF92FF920F931F93CF93DF9351
:10238000CDB7DEB761970FB6F894DEBF0FBECDBFF5
:1023900060E080E00E943411C0906907D0906A0725
:1023A00060E080E00E943411E0906B07F0906C07D1
:1023B0001C821B828DE391E09A83898318861E829A
:1023C000812C912C55E9A52E54E0B52E00E010E0AB
:1023D00020E46BE6462E67E0562E8C149D0408F030
:1023E00093C0253409F456C034F42034A1F02434C9
:1023F00009F44BC085C0283409F457C0233509F4CB
:1024000044C0263409F07CC0A8014F5F5F4FF8013B
:1024100084918A0167C0A7014F5F5F4FF7018491E4
:10242000882309F471C0843209F05FC03201F2E000
:102430006F0E711CF20182819381F2E0EF0EF11CAC
:10244000FA01249127347CF4253494F4243409F0DF
:1024500059C0BE01665F7F4F298B0E9417118E0104
:10246000065F1F4F10C0283429F0233509F04AC0F9
:102470008C0148C0682FCE010196298B0E949A11C9
:102480008E010F5F1F4F29893DC0F80180810F5FCA
:102490001F4F28C03801FFEF6F1A7F0AC801298B30
:1024A0000E94E426830129891DC0F801678181E02B
:1024B000298B0E943411F801478136819085298942
:1024C000431304C08091E8079817D0F4E92FF0E097
:1024D000E655F84F80819F5FF80190879F3310F099
:1024E000431363C0811102C00BC07A01F5018083E0
:1024F000FFEF8F1A9F0AC50101965C01320102C0ED
:10250000320120E4230169CF60E080E00E943411B1
:1025100000916B0710916C072DE6E22E27E0F22E5A
:102520003DE3A32E31E0B32E412C512C32014394D4
:10253000C8010196F8012491222309F43CC02432F9
:1025400011F08C01F5CFF7016081F2E0EF0EF11C84
:102550000E5F1F4FFC018491883451F71C821B824F
:10256000BA82A982CE0101960E949A118E81882397
:10257000F9F2A82FB0E093E0B595A7959A95E1F709
:10258000A65BBB4F982F9770B301A20104C0440F04
:10259000551F661F771F9A95D2F79C91492B4C9334
:1025A0006FE30E94720D8E83E1CF9091E907F801ED
:1025B0009783108697CFF601EB56FB4F10828BE77F
:1025C00080932A01C60161960FB6F894DEBF0FBE54
:1025D000CDBFDF91CF911F910F91FF90EF90DF90D2
:1025E000CF90BF90AF909F908F907F906F905F90B3
:1025F0004F900895CF92DF92EF92FF920F931F9327
:10260000CF93DF936C017A018B01C0E0D0E0CE154F
:10261000DF0589F0D8016D918D01D601ED91FC9116
:102620000190F081E02DC6010995892B11F47E01FE
:1026300002C02196ECCFC701DF91CF911F910F917E
:10264000FF90EF90DF90CF900895FC01538D448D63
:10265000252F30E0842F90E0821B930B541710F04D
:10266000CF96089501970895FC01918D828D98175A
:1026700061F0828DDF01A80FB11D5D968C91928D66
:102680009F5F9F73928F90E008958FEF9FEF089563
:10269000FC01918D828D981731F0828DE80FF11D2C
:1026A000858D90E008958FEF9FEF0895FC01918D47
:1026B000228D892F90E0805C9F4F821B91098F7340
:1026C000992708958AEF97E00E94561321E0892BFD
:1026D00009F420E0822F0895FC01848DDF01A80F0A
:1026E000B11DA35ABF4F2C91848D90E001968F733A
:1026F0009927848FA689B7892C93A089B1898C9159
:1027000080648C93938D848D981306C00288F3891E
:10271000E02D80818F7D80830895EF92FF920F934B
:102720001F93CF93DF93EC0181E0888F9B8D8C8D7D
:10273000981305C0E889F989808185FD24C0F62EAB
:102740000B8D10E00F5F1F4F0F731127E02E8C8D44
:10275000E8120CC00FB607FCFACFE889F98980812E
:1027600085FFF5CFCE010E946C13F1CF8B8DFE015A
:10277000E80FF11DE35AFF4FF0820B8FEA89FB89C6
:102780008081806207C0EE89FF896083E889F989CA
:1027900080818064808381E090E0DF91CF911F9100
:1027A0000F91FF90EF900895CF93DF93EC01888D08
:1027B0008823C9F0EA89FB89808185FD05C0A88945
:1027C000B9898C9186FD0FC00FB607FCF5CF8081CB
:1027D00085FFF2CFA889B9898C9185FFEDCFCE0115
:1027E0000E946C13E7CFDF91CF91089580E090E0D5
:1027F000892B29F00E94621381110C940000089526
:10280000611108C080932A01415A5B4F50932E07F3
:1028100040932D0781E008950E94B52A0F931F93DE
:10282000CF93DF93EC0188819981009729F02A8169
:102830003B812617370788F48B016F5F7F4F0E941B
:10284000EB29009761F0998388831B830A832C818D
:102850003D81232B11F4FC01108281E001C080E056
:10286000DF91CF911F910F910895EF92FF920F93F7
:102870001F93CF93DF93FB0124813581E080F180AA
:10288000FC0104811581E114F10411F480E017C00A
:102890002115310599F0EC01020F131FB8010E94B8
:1028A0000E14882399F3288139818C819D81B70189
:1028B000820F931F0E94D02A1D830C8381E0DF9139
:1028C000CF911F910F91FF90EF900895EF92FF929B
:1028D0000F931F93CF93DF93EC017B018A01BA0121
:1028E0000E940E142881398181110DC021153105F6
:1028F00019F0C9010E945329198218821D821C8275
:102900001B821A8206C01D830C83B701C9010E9475
:10291000D02ACE01DF91CF911F910F91FF90EF90C0
:102920000895CF93DF93EC016115710559F0FB0118
:1029300001900020E9F73197AF01461B570B0E9429
:1029400066140CC088819981009711F00E94532968
:10295000198218821D821C821B821A82CE01DF918D
:10296000CF910895FC01808191810C945329EF92BD
:10297000FF920F931F93CF93DF93CDB7DEB7A1974D
:102980000FB6F894DEBF0FBECDBF7C01CB01BA01FC
:10299000F70111821082138212821582148242E0A2
:1029A000420F8E010F5F1F4F0E94F622BC01C7012C
:1029B0000E949114A1960FB6F894DEBF0FBECDBF52
:1029C000DF91CF911F910F91FF90EF9008951F928B
:1029D0000F920FB60F9211242F933F934F935F9353
:1029E0006F937F938F939F93AF93BF93EF93FF93D7
:1029F0008AEF97E00E946C13FF91EF91BF91AF9126
:102A00009F918F917F916F915F914F913F912F9106
:102A10000F900FBE0F901F9018951F920F920FB638
:102A20000F9211242F938F939F93EF93FF93E09135
:102A30000A08F0910B088081E0911008F0911108CC
:102A400082FD12C09081809113088F5F8F73209157
:102A50001408821751F0E0911308F0E0E650F84FA7
:102A6000958F8093130801C08081FF91EF919F9112
:102A70008F912F910F900FBE0F901F901895CF93AD
:102A8000DF93C62F67E789E998E00E94D4086C2F8E
:102A900089E998E00E94D40189E998E00E947708CA
:102AA00067E789E998E00E94D40842E050E067E7D0
:102AB00070E089E998E00E94DE0889E998E00E94C8
:102AC0005601D82F80E0C82F89E998E00E9456016E
:102AD000C82BD92B89E998E00E947708CE01DF91B5
:102AE000CF910895CF93C62F67E789E998E00E94B8
:102AF000D4086C2F89E998E00E94D40189E998E014
:102B00000E94770867E789E998E00E94D40841E0CD
:102B100050E067E770E089E998E00E94DE0889E903
:102B200098E00E945601C82F89E998E00E94770832
:102B30008C2FCF910895CF93DF93EC0167E789E95C
:102B400098E00E94D40864EF89E998E00E94D401DB
:102B50006EE289E998E00E94D40189E998E00E9438
:102B6000770865E070E080E090E00E941E1B66EF51
:102B7000CE01DF91CF910C943F15FF920F931F93DD
:102B8000CF93DF93C62F60E489E998E00E94D408D0
:102B90006C2F89E998E00E94D40189E998E00E94AD
:102BA000770843E050E060E470E089E998E00E9433
:102BB000DE088091F80790E02091F907821B9109C7
:102BC0002FE431E08330910524F4F9013197F1F7D6
:102BD000F9CF89E998E00E945601F82EC82F89E9BB
:102BE00098E00E945601D82F89E998E00E9456018A
:102BF00098E031E32C2F220FC7FD07C0C22F915060
:102C0000C9F7CD2798E031E307C0C22FC327F7CF1C
:102C1000C22FC327915031F02C2F220FC7FDF8CFC0
:102C2000C22FF8CFC81306C01F2D00E0C8018D0FBA
:102C3000911D16C060E489E998E00E94D4086EEF07
:102C400089E998E00E94D40189E998E00E94770818
:102C50006FE070E080E090E00E941E1B81E090E059
:102C6000DF91CF911F910F91FF900895DC0196E0C5
:102C7000FB0101900D929A95E1F70895FB014081C7
:102C8000518162817381FC0140835183628373832C
:102C90000895CF92DF92FF920F931F93CF93DF930C
:102CA0001F92CDB7DEB78C0180915E04882319F0A6
:102CB000C8010E94BC0F0115110509F0BDC080912B
:102CC0001F07857051F08091550490915604892B0F
:102CD00021F40E94A40F8111C9C0809155049091E4
:102CE00056040196909356048093550480912607CC
:102CF000813009F07CC080911F0781FF78C082E09D
:102D00008093260780912C018F5F80932C01109176
:102D10002707009128078F712091250790E2299FAE
:102D200090011124F82EF22A8BE197E00E9461199C
:102D30006BE177E0882319F082E597E002C088E52F
:102D400097E00E94BF0BE8E0DE2ED0926B04109259
:102D50006C0449E050E061E971E08DE694E00E9486
:102D600016238CE28093700486E0809376040E94A0
:102D70008B0C00938304109384048BE08093810474
:102D8000F0928204E5E8F4E0DF011D92DA94E9F7BD
:102D900080912B01809387048D5F80932B0180E6C7
:102DA00080938D0482E080938E0493E090938F044F
:102DB0001092900410929104109292041092930435
:102DC000109294048093950494E0909396048093D9
:102DD000970486E28093980422E040E250E06AE1A2
:102DE00082E30E94330C8AE390E00E94200E81E28D
:102DF00097E00E946119882341F08091200781119A
:102E000004C0809168078823D9F18BE197E00E9484
:102E10006119882309F4A9C0809167078111A5C0B1
:102E2000809166078111A1C08BE197E00E94690E35
:102E300081E08093660799C00932110508F495C0B6
:102E400080916B04883009F090C080916C048630CA
:102E500009F086C044E050E06FEE77E085E894E04A
:102E60000E94BA2A892B09F080C012C08EE597E033
:102E70000E94690E80911F07886080931F072DCFE5
:102E800081E297E00E94690E81E080936807BDCFE0
:102E900080917404813029F585E694E00E94B40B9A
:102EA0001092730482E08093740465E774E08FE706
:102EB00094E00E94361668E574E085E794E00E948D
:102EC00036166BE774E085E894E00E943E166FEEDC
:102ED00077E08BE794E00E943E168AE290E00E9441
:102EE000200E80911F0783FF0CC0109174041230D4
:102EF00041F468E577E08EE597E00E94540B81117C
:102F000026C08091200781110CC08091680788231A
:102F100041F062E577E081E297E00E94540B811175
:102F200019C080916707811120C0809166078823AE
:102F3000E1F062E577E08BE197E00E94540B882393
:102F4000A1F081E080936707109266070EC010938E
:102F50001F07D7CF81E08093200710926807E1CF49
:102F60000932110511F0882319F0C12CD12C7AC136
:102F700080916D048534C9F744E050E06FEE77E04E
:102F80008DE794E00E94BA2A892BA1F044E050E03A
:102F900061E574E08DE794E00E94BA2A892B51F034
:102FA00044E050E063E371E08DE794E00E94BA2AC8
:102FB000892BD9F6809176048130F9F480918104CF
:102FC000883099F6E0916407F0916507309719F021
:102FD00089E794E009950E949A0C109281048091EF
:102FE0008304883F28F0909184049F5F9093840429
:102FF000885F80938304C8010CC10633110508F46F
:10300000B4CF863009F0B1CF809183048B3009F0C2
:10301000BDC044E050E06BE177E089E794E00E94B6
:10302000BA2A892B09F0A1CF20918E0422FF13C068
:10303000E0912B07F0912C07309759F08091840490
:1030400020E030E040E050E063E0829586958770B4
:10305000099585E08FC029830E946B0B6C018091DC
:1030600026072981823009F043C0822F80712271A6
:10307000223191F560E080E090E00E94800F88E1CD
:1030800080938E04E0912907F0912A07309741F050
:103090008091820482958695877009958C0102C083
:1030A00000E010E083E080932607C80188969093A3
:1030B0006F04809370040E948B0C10929104109204
:1030C0009204A801445E5F4F22E06AE182E30E941D
:1030D000330CC801C6969DC091E0909326078111DC
:1030E00003C0C601019602C080E090E064E04BC0DE
:1030F000833091F5C114D10491F1E0912B07F09147
:103100002C07309761F140918D0450E064E05595B3
:1031100047956A95E1F7440F551F440F551FC801A5
:1031200008974E5D5F4F8417950708F4AC01C60100
:10313000840F951F0817190720F49801241B350BDD
:1031400001C096018091840460E082958695877025
:10315000099569E0C6010BC0853009F406CF20FF50
:103160000CC0833009F401CF69E0C60101960E94CA
:10317000800F86E080932607F8CEC114D10409F4AD
:10318000F4CE60E0C6010E94800FEFCE8111EDCE3B
:1031900080918404803509F0E8CEF0908E04F1FE31
:1031A0003BC010926F048CE2809370040E949A0CD2
:1031B00082E180938E0460E081E090E00E94870BC2
:1031C000109285041092860480912B0180938704CD
:1031D000109288048D5F80932B0182E08093950488
:1031E00084E08093960485E080939704109298047D
:1031F00090E690938D0480938F0488E780939004E9
:1032000022E040E250E06AE182E30E94330C8AE36C
:1032100090E00E94200EA9CEF4FEA7CE0E946B0B78
:103220006C019093630780936207892BA1F08091D2
:103230008D0490E024E0959587952A95E1F7880F15
:10324000991F880F991F6C01B2E2CB0ED11C0C158F
:103250001D0540F48ACEF0FE88CE60E080E090E06C
:103260000E94800FC6010F90DF91CF911F910F91A7
:10327000FF90DF90CF9008953FB7F8948091AA080F
:103280009091AB08A091AC08B091AD0826B5A89B71
:1032900005C02F3F19F00196A11DB11D3FBFBA2FE8
:1032A000A92F982F8827820F911DA11DB11DBC0148
:1032B000CD0142E0660F771F881F991F4A95D1F70D
:1032C0000895CF93DF932091EF072223A1F0FC0113
:1032D0002081222381F0AFEEB7E0CBEED7E08D91D5
:1032E000219199918227892331F487E0A33FB80780
:1032F000B1F781E001C080E0DF91CF9108954F9256
:103300005F926F927F928F929F92AF92BF92CF9275
:10331000DF92EF92FF920F931F93CF93DF93CDB77E
:10332000DEB729970FB6F894DEBF0FBECDBF60E0C1
:1033300080E00E94341187E390E090936A078093C5
:1033400069078AEE91E090936C0780936B07DE012A
:103350005E962DE6A22E27E0B22E7C013DE3832E61
:1033600031E0932ECE0101966C01C7010196F70161
:103370002491222309F47DC0243211F07C01F5CF81
:103380003D01F2E06F0E711C0D911C9122E0E20EE6
:10339000F11CFC018491863421F140F48434A1F0C5
:1033A000853409F053C0412C512C20C0883449F198
:1033B000833509F04BC0F80101900020E9F73197FF
:1033C0002F01401A510A44C0B601C8010E941711CA
:1033D000F60101900020E9F731972F014C185D08A4
:1033E00037C0C8010E941F232C0132C0C201800FC8
:1033F000911F0E94E426882359F1FFEF4F1A5F0ABC
:10340000F5CF1C821B829A828982602FC6010E949E
:103410009A114D802FE3429E200111248F819091BB
:10342000A907891303C08091A7070AC09091EA07F2
:10343000891303C08091E80703C06EE30E94720DF8
:10344000480E511C83E0481A510802C0412C512CEF
:10345000F501019311935F018091690790916A07CB
:103460000297480E591E50926A0740926907D3018D
:103470007CCF29960FB6F894DEBF0FBECDBFDF918B
:10348000CF911F910F91FF90EF90DF90CF90BF9061
:10349000AF909F908F907F906F905F904F90089526
:1034A0000F931F93CF93DF93EC010C811D810F5F6E
:1034B0001F4FB8010E940E14882369F028813981BA
:1034C0008C819D816DE871E0820F931F0E94D02A4C
:1034D0001D830C8381E0DF91CF911F910F9108959F
:1034E00090E0FC01EA52FE4F3491FC01EE53FE4F96
:1034F0002491FC01E255FE4FE491EE2309F43BC018
:10350000332339F1333091F038F43130A9F03230CF
:1035100001F584B58F7D12C0373091F03830A1F0BD
:103520003430B9F4809180008F7D03C08091800099
:103530008F77809380000DC084B58F7784BD09C0DC
:103540008091B0008F7703C08091B0008F7D809311
:10355000B000F0E0EE0FFF1FEC55FE4FA591B491C7
:103560008FB7F894EC91611103C020952E2301C010
:103570002E2B2C938FBF08951092F9071092F80705
:103580001092F7071092F6071092F50781E08093EA
:10359000F4071092F30761E082E10E94701A61E083
:1035A00083E10E94701AE9EBF0E080818E7F8083D6
:1035B00080818D7F808388E48093B80085E4809348
:1035C000BC000895CF93DF9390E0FC01EE53FE4FD3
:1035D0002491FC01E255FE4F8491882361F190E033
:1035E000880F991FFC01E656FE4FC591D491FC014E
:1035F000EC55FE4FA591B491611109C09FB7F894A5
:103600008881209582238883EC912E230BC0623021
:1036100061F49FB7F8943881822F80958323888343
:10362000EC912E2B2C939FBF06C08FB7F894E881A6
:103630002E2B28838FBFDF91CF9108958F929F9279
:10364000AF92BF92CF92DF92EF92FF926B017C011B
:103650000E943C194B015C01C114D104E104F10446
:10366000F1F00E943C19DC01CB0188199909AA09E3
:10367000BB09883E9340A105B10570F321E0C21A51
:10368000D108E108F10888EE880E83E0981EA11C9D
:10369000B11CC114D104E104F10419F7DDCFFF908E
:1036A000EF90DF90CF90BF90AF909F908F90089554
:1036B0002FB7F8946091A6087091A7088091A80888
:1036C0009091A9082FBF08951F920F920FB60F92E5
:1036D00011242F933F938F939F93AF93BF93809128
:1036E000A6089091A708A091A808B091A9083091C8
:1036F000A50823E0230F2D3720F40196A11DB11D4D
:1037000005C026E8230F0296A11DB11D2093A50830
:103710008093A6089093A708A093A808B093A9083F
:103720008091AA089091AB08A091AC08B091AD0827
:103730000196A11DB11D8093AA089093AB08A09398
:10374000AC08B093AD08BF91AF919F918F913F911D
:103750002F910F900FBE0F901F901895CF93DF936E
:10376000CDB7DEB7EC970FB6F894DEBF0FBECDBF76
:10377000789484B5826084BD84B5816084BD85B54C
:10378000826085BD85B5816085BD80916E00816058
:1037900080936E00109281008091810082608093FE
:1037A0008100809181008160809381008091800000
:1037B0008160809380008091B10084608093B1002B
:1037C0008091B00081608093B00080917A00846025
:1037D00080937A0080917A00826080937A00809151
:1037E0007A00816080937A0080917A00806880936B
:1037F0007A001092C1000E94BC1A10925E0487E306
:1038000090E001E010E020E030E00097D1F0FC0112
:10381000B3E0F595E795BA95E1F7E65BFB4F482FE6
:1038200047706801790104C0CC0CDD1CEE1CFF1C44
:103830004A95D2F7B701A601A0814A2B4083019790
:10384000E4CF64E271E088E594E00E9436168CEBE8
:1038500092E090934904809348040CB406FC25C080
:1038600061E08AE00E94E21A61E08AE00E94701A38
:1038700061E08BE00E94E21A61E08DE00E94E21AB2
:1038800060E08CE00E94E21A61E08BE00E94701A16
:1038900060E08BE00E94701A60E08DE00E94701A78
:1038A00080E58CBD8DB581608DBD8AE08093470435
:1038B00061E00E94E21A0E94B10C4FEF60E08FEFCE
:1038C0000E940A0D62E070E080E090E00E941E1B02
:1038D0000E94B80C8DE10E94AC0C80E00E94AC0C00
:1038E0001EB50E94B10C112399F360E070E088E0EE
:1038F0000E945E0D60E070E08CE00E945E0D6FEF54
:103900007BE08AE00E945E0D60E07CE084E00E9443
:103910005E0D6FEF71E186E00E945E0D61EB88E362
:103920000E944B0D6FE370E388E20E945E0D69EF29
:1039300077EF80E30E945E0D6DE080EC0E944B0DFE
:1039400060E081EC0E944B0D42E362EC80E80E9453
:103950000A0D62E17CE086EC0E945E0D62E184EC7F
:103960000E944B0D6CED75E08AEC0E945E0D60913B
:10397000580484EE0E944B0D6091590485EE0E941C
:103980004B0D60915A0482EE0E944B0D60915B04D6
:1039900083EE0E944B0D60915C0480EE0E944B0D03
:1039A00060915D0481EE0E944B0D60E184ED0E9408
:1039B0004B0D60E071E086ED0E945E0D8AEE0E9484
:1039C000950D80FDFBCF8FE10E94260D40EC6BE151
:1039D00080E80E940A0D44E06FE180E80E940A0D31
:1039E00082E70E94950D81E080935E04E4E0F1E0BF
:1039F00001900020E9F7E750F14080915D04282F05
:103A000030E0A4E035952795AA95E1F72A303105F5
:103A100014F097E301C090E3EC5FFE4F290F208381
:103A2000E4E0F1E001900020E9F7E650F1408F700A
:103A30008A3014F097E301C090E3EC5FFE4F890FEA
:103A40008083109257040E94581B8B018091570469
:103A5000833081F00E94581B601B710B60367A4ED8
:103A600048F40E94A40F882389F30E94B60D0E9497
:103A7000BC0FECCF2BEE37E061E574E0EFEEF7E042
:103A800044E04E0F9191D9018D919D018095892B34
:103A9000DB018D93BD014E13F5CF109256041092A9
:103AA00055040E94581B8B010E94A40F81110AC06B
:103AB0000E94581B601B710B60337547A8F3FBE72E
:103AC0002F2EB9C0FF24F39481E297E00E94611980
:103AD000882319F08091200704C080911F078695E4
:103AE00081708F2561F00E94B60D0E9449160E94D8
:103AF000581B601B710B6033754730F3E0CF109299
:103B00001B0710921C0710921D0710921E07809130
:103B10002F078F5F80932F079091210791110BC082
:103B200048E058E0BA014093210750932207609380
:103B300023077093240790E045E350E061E277E0CB
:103B4000906E0E94D80B8CE0E9E8F4E0DF011D9252
:103B50008A95E9F7A5E9B4E042E651E08A01342FFD
:103B6000802F841BF80124910F5F1F4F2E3251F0DC
:103B7000222341F0802F831B6D01C80ED11CF6015A
:103B80002083EECF8C9390E00196A80FB91F2223DB
:103B900011F0A801E3CF1C9211961C92119781E0BD
:103BA00012968C93129713961C92139714968C93DB
:103BB00014972FE534E0A21BA552A093890490919D
:103BC0002F0790938A0480938B0480938E048A2F0E
:103BD00090E00E949D0E0E94581B8B0180911B0754
:103BE00081116DCF0E94581B601B710B60337547AC
:103BF00008F065CF0E94B60D7C01009779F30E9412
:103C00004916892B59F74AC480913207909133079E
:103C1000A0913407B0913507A7019601281B390BF5
:103C20004A0B5B0BDA01C901803A9B4BAD40B105F1
:103C300078F40E94F6130E94B60D0E9449160E9465
:103C4000581B6B017C01809136078111DDC3DCCFED
:103C500061E08AE00E94701AC0923207D092330766
:103C6000E0923407F09235071AA619A61CA61BA6E7
:103C70001EA61DA640E050E06CE871E0CE018996DA
:103C80000E9466140E94570A8C010E949B156C01C9
:103C9000E12CF12CD801BC908B2D8295880F880FD8
:103CA000807CE4E3BE2EB80E67E789E998E00E94C5
:103CB000D40864EF89E998E00E94D4016B2D89E96A
:103CC00098E00E94D40189E998E00E947708F80101
:103CD0008081811105C065E070E080E090E012C055
:103CE000813029F468E070E080E090E00BC0823021
:103CF00029F46EE070E080E090E004C06AE170E0DA
:103D000080E090E00E941E1B66EFC8010E943F15F4
:103D10004C01A12CB12CBA2CA92C982C882468EF2A
:103D2000C8010E947215882AD8013C9055968D9141
:103D30009C915697A7019601281B390B41095109FF
:103D400053960D90BC91A02D0E94EC266B017C0136
:103D50009FE0F594E794D794C7949A95D1F7F8012A
:103D600065857685CB01770FAA0BBB0BBC01CD0116
:103D70002BE0660F771F881F991F2A95D1F727859B
:103D800030892901330F66087708A7019601240DB1
:103D9000351D461D571D0E949128C20ED31EE41EDC
:103DA000F51EF0EACF1AFFE0DF0AE108F108A701EB
:103DB0009601C701B6010E944B289B01AC016CE043
:103DC00055954795379527956A95D1F72FA738AB25
:103DD00049AB5AABD80111960D90BC91A02DBCAF48
:103DE000ABAFF801A581B681A70196010E94B0286A
:103DF0002B013C017DE075946794579447947A9524
:103E0000D1F7A781B0852FA538A949A95AA90E9441
:103E1000B028BB2797FDB095AB2F840D951DA61D2F
:103E2000B71D0296A11DB11D22E0B595A7959795E6
:103E300087952A95D1F79C01AD0130584F4F5F4FC0
:103E4000A189B2890E94EC262B013C013FE07694C7
:103E50006794579447943A95D1F788E090E0831996
:103E60009109A501940104C056954795379527956A
:103E70008A95D2F72FAB38AF49AF5AAFEBADFCAD57
:103E80004F01FF0FAA08BB0842E0880C991CAA1C2E
:103E9000BB1C4A95D1F7F801A185B2852FA538A999
:103EA00049A95AA90E94B0289B01AC016BE0559525
:103EB0004795379527956A95D1F72FA738AB49AB2A
:103EC0005AABA381B481A70196010E94B028DC01FE
:103ED000CB017BE0B595A795979587957A95D1F716
:103EE000CFA4D8A8E9A8FAA88C0D9D1DAE1DBF1DB2
:103EF000880D991DAA1DBB1D032C04C0880F991F96
:103F0000AA1FBB1F0A94D2F7BC01CD016E5F7F4F81
:103F10008F4F9F4F24E030E040E050E00E94912816
:103F2000CFA8D8ACE9ACFAACC21AD30AE40AF50AB5
:103F3000A701960160E573EC80E090E004C09695DF
:103F40008795779567953A94D2F70E944B2897FD0D
:103F50000BC0660F771F881F991FA30192010E9453
:103F60006F2869017A010AC0A30192010E946F289B
:103F700069017A01CC0CDD1CEE1CFF1C9927F7FCB3
:103F80009A958F2D7E2D6D2D9B01AC010E944B28A3
:103F90009B01AC01AEEDBBE00E94EC264C01BB24C2
:103FA00097FCB094AB2CA3E4B3EEA70196010E945A
:103FB000B328BB2797FDB095AB2F880D991DAA1D7F
:103FC000BB1D8153914FAF4FBF4F64E0B595A7958F
:103FD000979587956A95D1F71CA21BA21EA21DA2D8
:103FE00018A61FA2BC01CD016C0D7D1D8E1D9F1D4D
:103FF0002AE0AE014F5F5F4F0E942823BE016F5F32
:104000007F4FCE0183960E949114BE016D5D7F4F5C
:10401000CE0189960E943514CE0183960E94B21477
:10402000CE0189960E94501A0E94570A8C010E9464
:104030009B15AC0160E070E0D80155968D919C9184
:1040400056979A01AB01281B390B41095109539628
:104050000D90BC91A02D0E94EC266B017C017FE0AD
:10406000F594E794D794C7947A95D1F7F8016585CC
:104070007685CB01770FAA0BBB0BBC01CD01ABE062
:10408000660F771F881F991FAA95D1F7278530895A
:104090008901330F220B330BA90198012C0D3D1D13
:1040A0004E1D5F1D0E949128D701C601820F931FEC
:1040B000A41FB51F0896A11DB11DBC01CD01B4E020
:1040C0009595879577956795BA95D1F70E94EB25D9
:1040D00020E030E040E251E40E94AA27AB01BC019D
:1040E00022E0CE0101960E94B714BE016F5F7F4FA0
:1040F000CE0189960E943514CE0101960E94B21419
:10410000CE0189960E94501A0E94570A63EE479684
:104110000E94BD158C7FBC0180E090E00E94E925E3
:1041200022E538EB4FE25BE30E94262626E636E6E0
:104130004BE352E40E943D27AB01BC0122E0CE01DB
:1041400001960E94B714BE016F5F7F4FCE01899622
:104150000E943514CE0101960E94B214CE018996B8
:104160000E94501A0E94570A65EE47960E94BD159C
:104170008C7FBC0180E090E00E94E92520E030E0E7
:104180004AEF5AE30E94262620E030E040EC50E45B
:104190000E943D27AB01BC0122E0CE0101960E94A6
:1041A000B714BE016F5F7F4FCE0189960E94351410
:1041B000CE0101960E94B214CE0189960E94501A37
:1041C0000E94570A8C0141E050E069E370E0DC0195
:1041D00058968D919C9159970E94DE08813019F074
:1041E0008FEF9FEF28C0F801808D918DDC01ED915C
:1041F000FC910284F385E02D0995F82E41E050E012
:1042000068E370E0F801808D918D0E94DE088130B6
:1042100039F7D80158968D919C915997DC01ED9111
:10422000FC910284F385E02D0995FCAA1BAACBA87A
:10423000DCA88C299D291CA21BA21EA21DA218A6C7
:104240001FA24AE0BE016F5F7F4F0E945923BE014B
:104250006F5F7F4FCE0183960E949114BE016D5D0A
:104260007F4FCE0189960E943514CE0183960E941D
:10427000B214CE0189960E94501A0E94570ADC019E
:104280005B966D917C915C9742E050E089E998E003
:104290000E94DE0889E998E00E9456018EAB1DAAB3
:1042A00089E998E00E945601CDA8DEA88C299D29B5
:1042B000BC0180E090E00E94E9252AE939E949E95A
:1042C0005FE30E94AA271CA21BA21EA21DA218A681
:1042D0001FA20E941C28DC01CB014AE0BE016F5FD7
:1042E0007F4F0E945923BE016F5F7F4FCE0183969F
:1042F0000E949114BE016D5D7F4FCE0189960E9490
:104300003514CE0183960E94B2141C821B822DE3C9
:10431000E22E21E0F22EFA82E98218861E820E94A5
:104320000E08182F682F80E00E9434111092690740
:1043300010936B0710936A0783E08093A70710928E
:10434000A807612FCE0101960E949A11182F4DA542
:104350005EA569A57AA5CE0101960E94FA126E812A
:1043600080E00E9434118D819E81AF818093690726
:1043700090936A07A0936B079091EA078E81981338
:1043800004C060E081E00E943411A2E6B1E0BF9376
:10439000AF931F921F93AAEEB1E0BF93AF930E9419
:1043A0007F1980E0C82E84E1D82ED0922C07C092CD
:1043B0002B0790EBE92E91E1F92EF0922A07E0927B
:1043C00029071092280780E58093270791E09093B2
:1043D0002607809125078F5F87708093250780933C
:1043E00030078093310790933607CE0189960E945B
:1043F000B21460E08AE00E94701A0F900F900F9044
:104400000F900F900F9015CC813009F012CC809155
:10441000320790913307A0913407B0913507A70177
:104420009601281B390B4A0B5B0BDA01C90189384D
:104430009341A105B10550F0C0923207D0923307E5
:10444000E0923407F09235071092360790912A01D6
:10445000809131079813EDCB20922A0180912D078E
:1044600090912E07009709F4E4CB61E871E00E9477
:10447000D72A892B81F442E050E067E871E08AEFA7
:1044800097E00E94FA1242E050E06AE871E08AEF99
:1044900097E00E94FA1210923607CBCB46E4E4165E
:1044A000F10408F49BCB80918204853309F096CB0C
:1044B00080918304803E09F091CB80918404909197
:1044C0002F0789138BCB90918A04981387CB809107
:1044D0008C048F7009F0F3CAE0918904F0E0E7578B
:1044E000FB4FC701815A9B4F2081207C11F03296EF
:1044F0000EC0BF016F5F7F4FFB016817790738F46B
:10450000BF016F5F7F4F20812111F6CFFB019F011B
:10451000225F3F4F8217930708F460CB21816185AA
:10452000213051F4643041F4BF01665F7F4F8BE16D
:1045300097E00E943E1652CB70E0665F7F4FE60F19
:10454000F71FD2CFEAEFF7E01382128288EE93E0F2
:10455000A0E0B0E084839583A683B78329E431E0AB
:104560003183208325EC30E03587248724EC30E04C
:104570003787268720EC30E0318B208B21EC30E030
:10458000338B228B22EC30E0358B248B26EC30E011
:10459000378B268B118E128E138E148EEEEAF8E076
:1045A000158216821186138642E050E060E070E0CA
:1045B000448755876687778713A215A614A62BE52F
:1045C00031E033A722A717A6E7E9F8E020E520832A
:1045D0001182E9E9F8E01382128284839583A6832D
:1045E000B78387E691E0918380830895EF920F93DC
:1045F0001F93CF93DF93E80147FD02C034E001C071
:1046000034E1E42F440FFF0BF7FF03C0F195E19570
:10461000F109E32E022F2E2FAE010E947323CE014B
:10462000DF91CF911F910F91EF900895FB01DC0175
:1046300002C005900D9241505040D8F70895FC01FA
:1046400005900020E9F7809590958E0F9F1F0895A3
:10465000BB272A3051F4992342F4BDE2909580950E
:10466000709561957F4F8F4F9F4F0C943823BB27D8
:10467000FA01A62F6217710581059105330B30FBF6
:1046800066F0AA27660F771F881F991FAA1FA21717
:1046900010F0A21B63953850A9F7A05DAA3308F06B
:1046A000A95DA19336F7B111B1931082CA010C94A0
:1046B000D925BB27FB015527AA27880F991FAA1FB9
:1046C000A41710F0A41B83955051B9F7A05DAA332D
:1046D00008F0A95DA193009779F7B111B1931192F8
:1046E000CB010C94D9254F925F926F927F929F924B
:1046F000AF92BF92CF92DF92EF92FF920F931F93F0
:10470000CF93DF93CDB7DEB729970FB6F894DEBF0E
:104710000FBECDBF6A01122FB02E2BE3201720F061
:10472000FF24F394F00E02C0BCE3FB2E0F2D27E014
:10473000AE014F5F5F4F0E940125AC018981982F28
:104740009970913031F0E1FC06C0E0FE06C090E2C5
:1047500005C09DE203C09BE201C090E0EE2DE07138
:1047600083FF3CC0911102C083E001C084E0811747
:1047700018F4212F281B01C020E0E1110BC0F60125
:10478000822F30E2882319F031938150FBCFC20E83
:10479000D11C20E0992329F0D6019C93F601319693
:1047A0006F01C6010396E2FE0AC03EE4D6013C93C7
:1047B00041E411964C93119712963C9306C03EE645
:1047C000F601308341E641833283FC01322F40E21F
:1047D000332309F442C041933150FACF82FF44C0E1
:1047E000911102C083E001C084E0811718F4212FE9
:1047F000281B01C020E0E1110BC0F601822F30E23E
:10480000882319F031938150FBCFC20ED11C20E0D8
:10481000992329F0D6019C93F60131966F01C601C8
:104820000396E2FE0BC039E4D6013C933EE41196B8
:104830003C93119736E412963C9307C039E6F60193
:1048400030833EE6318336E63283FC01322F40E28C
:10485000332319F041933150FBCFFC01E20FF11DDE
:1048600010828EEF9FEFB7C0F1E0911101C0F0E030
:104870006F2F70E01416150624F49A012F5F3F4F36
:1048800002C021E030E0260F371FBB2029F06B2D3E
:1048900070E06F5F7F4F02C060E070E0260F371F4F
:1048A000612F70E0261737071CF4121B212F01C05F
:1048B00020E03E2D387159F4D601322F60E23323C7
:1048C00019F06D933150FBCFC20ED11C20E0FF23B5
:1048D00031F0D6019C93B6016F5F7F4F6B01E11100
:1048E0000BC0F601922F30E3992319F031939150C8
:1048F000FBCFC20ED11C20E09F2D940F3A81782F60
:104900007071A72E84FF03C0313309F4915019163A
:1049100024F4993018F098E001C091E0E42F852F3D
:1049200057FF02C0E0E080E06E2F782FE0E0F0E07B
:10493000AEE29A2E3A01691A71082A01461A570AFC
:104940000B2D10E01195019511096F3F8FEF78073E
:1049500029F4D6019C92C60101966C0146175707AF
:1049600084F0661677066CF47F01E40CF51CA1E078
:10497000B0E0AC0FBD1FEA0EFB1ED7011196BC9034
:1049800002C090E3B92E615071093196C6010196BB
:104990007C016017710724F0D601BC926C01D5CF61
:1049A0006417750741F4363320F4353321F4A11030
:1049B00002C081E3B82EF601B082F701822F90E2A7
:1049C000882319F091938150FBCFF701E20FF11D7D
:1049D000108280E090E029960FB6F894DEBF0FBEFB
:1049E000CDBFDF91CF911F910F91FF90EF90DF909E
:1049F000CF90BF90AF909F907F906F905F904F90BF
:104A00000895283008F027E03327DA01990F311D87
:104A100087FD916000966105710539F432602E5F63
:104A20003D9330E32A95E1F708959F3F30F08038B9
:104A30007105610509F03C5F3C5F3D93913008F0E2
:104A40008068911DDF93CF931F930F93FF92EF9296
:104A5000192F987F9695E92F96959695E90FFF2740
:104A6000EE53FF4F99273327EE24FF24A701E701D8
:104A700005900894079428F4360FE71EF81E491F86
:104A8000511D660F771F881F991F0694A1F7059087
:104A9000079428F4E70EF81E491F561FC11D770F13
:104AA000881F991F661F0694A1F70590079428F4A4
:104AB000F80E491F561FC71FD11D880F991F661F6B
:104AC000771F0694A1F70590079420F4490F561F0D
:104AD000C71FD81F990F661F771F881F0694A9F755
:104AE00084911095177041F0D695C79557954795C5
:104AF000F794E7941A95C1F7E8E6F0E0689415900A
:104B0000159135916591959105907FE27395E11826
:104B1000F10A430B560BC90BD009C0F7E10CF11E8B
:104B2000431F561FC91FD01D7EF4703311F48A95A0
:104B3000E6CFE894015030F0080F0AF4002702177E
:104B400008F4202F2395022F7A3328F079E37D9300
:104B50002A95E9F710C07D932A9589F606949795D2
:104B60006795379517951794E118F10A430B560B83
:104B7000C90BD00998F023957E9173957A3308F08C
:104B800070E37C932013B8F77E9170617D9330F0D1
:104B9000839571E37D9370E32A95E1F71124EF90FB
:104BA000FF900F911F91CF91DF91992787FD9095ED
:104BB0000895DC01FC01672F71917723E1F73297AB
:104BC00004C07C916D9370836291AE17BF07C8F3E8
:104BD0000895E89409C097FB3EF4909580957095F0
:104BE00061957F4F8F4F9F4F9923A9F0F92F96E939
:104BF000BB279395F695879577956795B795F111AE
:104C0000F8CFFAF4BB0F11F460FF1BC06F5F7F4F4A
:104C10008F4F9F4F16C0882311F096E911C077235C
:104C200021F09EE8872F762F05C0662371F096E865
:104C3000862F70E060E02AF09A95660F771F881F34
:104C4000DAF7880F9695879597F908950E94392687
:104C50000C94AA260E949C2638F00E94A32620F0DD
:104C6000952311F00C9493260C94992611240C94FE
:104C7000DE260E94BB2670F3959FC1F3950F50E08E
:104C8000551F629FF001729FBB27F00DB11D639FFE
:104C9000AA27F00DB11DAA1F649F6627B00DA11DA4
:104CA000661F829F2227B00DA11D621F739FB00D4A
:104CB000A11D621F839FA00D611D221F749F3327BA
:104CC000A00D611D231F849F600D211D822F762F53
:104CD0006A2F11249F5750409AF0F1F088234AF030
:104CE000EE0FFF1FBB1F661F771F881F915050409C
:104CF000A9F79E3F510580F00C9493260C94DE2674
:104D00005F3FE4F3983ED4F3869577956795B79522
:104D1000F795E7959F5FC1F7FE2B880F911D96953C
:104D2000879597F9089597F99F6780E870E060E0AC
:104D300008959FEF80EC089500240A941616170634
:104D400018060906089500240A941216130614067C
:104D500005060895092E0394000C11F4882352F0DF
:104D6000BB0F40F4BF2B11F460FF04C06F5F7F4F97
:104D70008F4F9F4F089557FD9058440F551F59F07E
:104D80005F3F71F04795880F97FB991F61F09F3F38
:104D900079F087950895121613061406551FF2CF61
:104DA0004695F1DF08C0161617061806991FF1CFB1
:104DB00086957105610508940895E894BB276627D8
:104DC0007727CB0197F90895F999FECF92BD81BD60
:104DD000F89A992780B508950E942E27A59F900DD7
:104DE000B49F900DA49F800D911D112408952F92C2
:104DF0003F924F925F926F927F928F929F92AF926B
:104E0000BF92CF92DF92EF92FF920F931F93CF93B7
:104E1000DF93CDB7DEB7CA1BDB0B0FB6F894DEBF4E
:104E20000FBECDBF09942A88398848885F846E8474
:104E30007D848C849B84AA84B984C884DF80EE80BE
:104E4000FD800C811B81AA81B981CE0FD11D0FB6C7
:104E5000F894DEBF0FBECDBFED010895A29FB00153
:104E6000B39FC001A39F700D811D1124911DB29F9E
:104E7000700D811D1124911D08955058BB27AA273C
:104E80000E9455270C94AA260E949C2638F00E9466
:104E9000A32620F039F49F3F19F426F40C949926A8
:104EA0000EF4E095E7FB0C949326E92F0E94BB26B5
:104EB00058F3BA17620773078407950720F079F44F
:104EC000A6F50C94DD260EF4E0950B2EBA2FA02D3E
:104ED0000B01B90190010C01CA01A0011124FF27A7
:104EE000591B99F0593F50F4503E68F11A16F040A2
:104EF000A22F232F342F4427585FF3CF46953795A1
:104F00002795A795F0405395C9F77EF41F16BA0B65
:104F1000620B730B840BBAF09150A1F0FF0FBB1F13
:104F2000661F771F881FC2F70EC0BA0F621F731F5C
:104F3000841F48F4879577956795B795F7959E3FB9
:104F400008F0B0CF9395880F08F09927EE0F97954A
:104F5000879508950E94BE270C94AA260E94A32636
:104F600058F00E949C2640F029F45F3F29F00C94F1
:104F7000932651110C94DE260C9499260E94BB2690
:104F800068F39923B1F3552391F3951B550BBB2778
:104F9000AA2762177307840738F09F5F5F4F220FBD
:104FA000331F441FAA1FA9F335D00E2E3AF0E0E8B4
:104FB00032D091505040E695001CCAF72BD0FE2FFE
:104FC00029D0660F771F881FBB1F26173707480792
:104FD000AB07B0E809F0BB0B802DBF01FF2793584A
:104FE0005F4F3AF09E3F510578F00C9493260C9455
:104FF000DE265F3FE4F3983ED4F386957795679578
:10500000B795F7959F5FC9F7880F911D969587957E
:1050100097F90895E1E0660F771F881FBB1F62179D
:1050200073078407BA0720F0621B730B840BBA0B5B
:10503000EE1F88F7E09508950E94C32688F09F57D9
:1050400098F0B92F9927B751B0F0E1F0660F771FAC
:10505000881F991F1AF0BA95C9F714C0B13091F0A2
:105060000E94DD26B1E008950C94DD26672F782F8D
:105070008827B85F39F0B93FCCF386957795679567
:10508000B395D9F73EF490958095709561957F4FD3
:105090008F4F9F4F0895DB018F939F930E94EC26C3
:1050A000BF91AF91A29F800D911DA39F900DB29FC4
:1050B000900D11240895AA1BBB1B51E107C0AA1F24
:1050C000BB1FA617B70710F0A61BB70B881F991FA9
:1050D0005A95A9F780959095BC01CD010895A1E25C
:1050E0001A2EAA1BBB1BFD010DC0AA1FBB1FEE1F62
:1050F000FF1FA217B307E407F50720F0A21BB30BAD
:10510000E40BF50B661F771F881F991F1A9469F728
:1051100060957095809590959B01AC01BD01CF0184
:105120000895052E97FB1EF400940E94A82857FDB1
:1051300007D00E946F2807FC03D04EF40C94A828D7
:1051400050954095309521953F4F4F4F5F4F0895B3
:1051500090958095709561957F4F8F4F9F4F0895E3
:10516000B7FF0C94EC260E94EC26821B930B08954B
:10517000EE0FFF1F0590F491E02D0994CF93DF937C
:105180008230910510F482E090E0E091F908F0910E
:10519000FA0820E030E0C0E0D0E0309711F1408123
:1051A000518148175907C0F04817590761F48281A7
:1051B0009381209719F09B838A832BC09093FA08E0
:1051C0008093F90826C02115310519F042175307BD
:1051D00018F49A01BE01DF01EF010280F381E02D96
:1051E000DCCF2115310509F1281B390B243031059D
:1051F00090F412968D919C9113976115710521F091
:10520000FB019383828304C09093FA088093F9088A
:10521000FD01329644C0FD01E20FF31F819391938B
:10522000225031092D933C933AC02091F7083091D8
:10523000F808232B41F420912F0130913001309355
:10524000F8082093F70820912D0130912E012115A7
:10525000310541F42DB73EB74091310150913201F3
:10526000241B350BE091F708F091F808E217F307DB
:10527000A0F42E1B3F0B2817390778F0AC014E5FC6
:105280005F4F2417350748F04E0F5F1F5093F80803
:105290004093F7088193919302C0E0E0F0E0CF01E2
:1052A000DF91CF9108950F931F93CF93DF930097D2
:1052B00009F48CC0FC013297138212820091F90824
:1052C0001091FA080115110581F420813181820FB6
:1052D000931F2091F7083091F8082817390779F5BE
:1052E000F093F808E093F70871C0D80140E050E06F
:1052F000AE17BF0750F412962D913C911397AD0154
:105300002115310509F1D901F3CF9D01DA0133836C
:10531000228360817181860F971F8217930769F43A
:10532000EC0128813981260F371F2E5F3F4F3183D3
:1053300020838A819B8193838283452B29F4F09378
:10534000FA08E093F90842C01396FC93EE93129783
:10535000ED01499159919E01240F351FE217F30782
:1053600071F480819181840F951F029611969C9310
:105370008E938281938113969C938E931297E0E093
:10538000F0E0D80112968D919C911397009719F037
:10539000F8018C01F6CF8D919C9198012E5F3F4FC3
:1053A000820F931F2091F7083091F80828173907CA
:1053B00069F4309729F41092FA081092F90802C0A3
:1053C000138212821093F8080093F708DF91CF91AF
:1053D0001F910F910895A0E0B0E0E1EFF9E20C9485
:1053E000FB26EC01009721F4CB010E94BE28B8C037
:1053F000FC01E60FF71F9C0122503109E217F30769
:1054000008F4ACC0D9010D911C911197061717072C
:10541000B0F00530110508F49FC0C8010497861745
:10542000970708F499C002501109061B170B019346
:1054300011936D937C93CF010E9453298DC05B0122
:10544000A01AB10A4C01800E911EA091F908B091EA
:10545000FA0840E050E0E12CF12C109709F44AC022
:10546000A815B905D1F56D907C901197630182E084
:10547000C80ED11CCA14DB0480F1A3014A195B09D0
:105480006A0182E0C80ED11C1296BC901297139646
:10549000AC91B5E0CB16D10440F0B282A383518326
:1054A0004083D9016D937C930AC00E5F1F4FC301E7
:1054B000800F911FF90191838083EB2DFA2FE11466
:1054C000F10431F0D7011396FC93EE93129744C088
:1054D000F093FA08E093F9083FC08D919C911197E1
:1054E0004817590708F4AC017D0112960D90BC9144
:1054F000A02DB3CF8091F7089091F80888159905F1
:10550000E1F446175707C8F480912D0190912E01C0
:10551000009741F48DB79EB740913101509132010F
:10552000841B950BE817F907C8F4F093F808E0938B
:10553000F708F901718360830FC0CB010E94BE2878
:105540007C01009759F0A801BE010E94C72ACE0134
:105550000E945329C70104C0CE0102C080E090E040
:10556000CDB7DEB7EEE00C94172781E090E0F89419
:105570000C94F12AFB01DC0104C08D91019080198B
:1055800021F441505040C8F7881B990B0895FB0146
:10559000DC0102C001900D9241505040D8F70895AF
:1055A000FB01DC0101900D920020E1F70895FB0161
:1055B00051915523A9F0BF01DC014D9145174111CF
:1055C000E1F759F4CD010190002049F04D914015CB
:1055D0004111C9F3FB014111EFCF81E090E0019748
:0655E0000895F894FFCFCE
:1055E600FFFFFFFF41726475696E6F2D454E4332B2
:1055F600386A36302D303000000000000000000010
:1056060000000000DDDDDD0000017B0A010000FB7B
:10561600088000FFFFFFFFFFFF000000004B08FAB5
:105626001204020302000000008D13FA122513D49F
:1056360013561334134813000000003006FA120400
:1056460002030200000000D401A401040246016A1C
:105656000156014701000000000C14FA120402036F
:10566600024B4F202D20004F4B000D0A0023000057
:00000001FF
