:100000000C94E2000C940A010C940A010C940A016D
:100010000C940A010C940A010C940A010C940A0134
:100020000C940A010C940A010C940A010C940A0124
:100030000C940A010C940A010C940A010C940A0114
:100040000C94111C0C940A010C94350D0C940F0D9A
:100050000C940A010C940A010C940A010C940A01F4
:100060000C94CF030C940A0100407A10F35A00A0BC
:10007000724E18090010A5D4E80000E87648170071
:1000800000E40B54020000CA9A3B000000E1F505B1
:10009000000080969800000040420F000000A086FB
:1000A00001000000102700000000E803000000002D
:1000B0006400000000000A000000000001000000D1
:1000C00000002C76D888DC674F0823DFC1DFAE59EB
:1000D000E1B1B796E5E3E453C63AE651997696E87E
:1000E000E6C28426EB898C9B62ED407C6FFCEFBC02
:1000F0009C9F40F2BAA56FA5F490055A2AF75C932D
:100100006B6CF9676DC11BFCE0E40D47FEF520E662
:10011000B500D0ED902E0300943577050080841E45
:10012000080000204E0A000000C80C333333330FA0
:10013000986E12831141EF8D2114893BE65516CF3D
:10014000FEE6DB18D1844B381BF77C1D901DA4BB49
:10015000E424203284725E228100C9F124ECA1E5FE
:100160003D277C3C3E5E2B3D3F2F5B5D3B2C2A2296
:100170005C0000000008000201000003040700000A
:1001800000000000000000000000250028002B00F7
:1001900000000000240027002A00040404040404D2
:1001A0000404020202020202030303030303010226
:1001B00004081020408001020408102001020408F5
:1001C0001020351E11241FBECFEFD8E0DEBFCDBFFB
:1001D00025E0ACE8B1E001C01D92A135B207E1F71E
:1001E00011E0A0E0B1E0E8ECFCE402C005900D9263
:1001F000AC38B107D9F710E0C2EED0E004C02197C7
:10020000FE010E942924C13ED107C9F70E945B1C50
:100210000C9462260C9400000895E0914F048091A4
:100220004E04E81730F4F0E0E15EFD4F808190E08D
:1002300008958FEF9FEF089590914F0480914E04A1
:10024000981750F4E92FF0E0E15EFD4F208130E097
:100250009F5F90934F0402C02FEF3FEFC9010895B5
:1002600080914E0490E020914F04821B91090895E3
:10027000089580E090E0089585ED8093BC00809122
:10028000BC0084FDFCCF10924B0408954091B40152
:10029000262F30E0240F311D21323105DCF420916E
:1002A0004B042430C9F4FC0180E090E0861758F438
:1002B0003091B4012191DC01AE56BE4FA30FB11DA8
:1002C0002C930196F3CF8091B401680F6093B40131
:1002D00080E0089581E0089582E00895CF92DF9252
:1002E000EF92FF920F931F93CF93DF937C01262F02
:1002F000972F8A0180911E02882391F0C62FD72F55
:100300006E01C40ED51ECC15DD0571F06991D701C3
:10031000ED91FC910190F081E02DC7010995F3CF9B
:10032000642F822F0E944601C801DF91CF911F9157
:100330000F91FF90EF90DF90CF900895CF93DF93D0
:100340001F92CDB7DEB7698320911E022223D1F020
:1003500020914C04203240F021E030E0FC01338356
:10036000228380E090E015C080914D04E82FF0E0FA
:10037000E250FE4F998190838F5F80934D0480936C
:100380004C0405C061E0CE0101960E94460181E067
:1003900090E00F90DF91CF91089561E0FC0184819E
:1003A0000E94591B80913F02811110923F020895D3
:1003B0008EBD00000DB407FEFDCF8EB508958FEF02
:1003C0000C94D8010F931F93CF93DF93EB010E94FE
:1003D000051C8B010E94DF018F3F49F00E94051C24
:1003E000601B710B6C177D07A8F380E001C081E0F2
:1003F000DF91CF911F910F910895CF93DF93EC017F
:100400008E81882389F08F8198859C012F5F3F4FD3
:1004100038872F838230924018F40E94DF01F3CF97
:10042000CE010E94CD011E82DF91CF9108958CBD37
:100430009DBD0895CF93DF93EC0180913F02811120
:1004400009C081E080933F02809136059091370585
:100450000E94170260E08C81DF91CF910C94591BB0
:10046000CF92DF92FF920F931F93CF93DF9300D031
:1004700000D0CDB7DEB76C01F62E29833A834B83CB
:100480005C830E94FD01C6010E941A026CE271E0C9
:10049000C6010E94E2018F2D80640E94D80108E10C
:1004A00010E05C814B813A812981DA01C901002E7B
:1004B00004C0B695A795979587950A94D2F7298396
:1004C0003A834B835C830E94D8010850110929812B
:1004D0003A814B815C81083F8FEF180731F7FF208D
:1004E00029F0E8E0FE1204C087E803C085E901C0F6
:1004F0008FEF0E94D80110E00E94DF01F601828791
:1005000087FF04C01F3F11F01F5FF6CF0F900F90C1
:100510000F900F90DF91CF911F910F91FF90DF907F
:10052000CF90089520914C049091FD01213208F064
:100530004AC080914B048111FCCF32E030934B04D0
:1005400031E030934A043FEF3093FC011092FB01FD
:100550002093FA01AEEFB1E04AED51E0FA013E2FEF
:10056000341B321718F43D913193F9CF1092D90111
:100570002091D901990F922B9093D9019091490420
:10058000913061F4109249049091D9019093BB008D
:100590009091BC0093FDF8CF95EC01C095EE90933F
:1005A000BC0090914B049230E1F39091FC019F3F8D
:1005B00079F08091FC01803241F08091FC01803320
:1005C00031F084E005C081E003C082E001C083E037
:1005D00010924D0410924C0410921E02089581E076
:1005E00080931E026093FD0110924D0410924C0402
:1005F0000895CF93DF9380918C0190918D01892B89
:1006000009F07BC08DE190E00E942F24EC0183E291
:1006100090E09C8F8B8F83E088830E94A51B60ED08
:10062000CE010E949A0D853509F042C06AEACE01DA
:100630000E94670D9A8389836CEACE010E94670D40
:100640009C838B836EEACE010E94670D9E838D830F
:1006500060EBCE010E94670D9A8B898B62EBCE0115
:100660000E94670D9C8B8B8B64EBCE010E94670D03
:100670009E8B8D8B66EBCE010E94670D98878F83D2
:1006800068EBCE010E94670D9A8789876AEBCE01DD
:100690000E94670D9C878B876CEBCE010E94670DD3
:1006A0009E878D876EEBCE010E94670D988B8F879A
:1006B00088E395E0998F888F86E08A8F0E94A51B3A
:1006C00068E3888D998D0E94EF02888D998DDC01F9
:1006D000ED91FC910190F081E02D6A8D0995888D56
:1006E000998D0E94920264EF71E080E090E00E9498
:1006F000CB1BD0938D01C0938C0180918C01909184
:100700008D01DF91CF91089580914B048111FCCF31
:10071000842F413208F080E291E090934B04909353
:100720004A042FEF2093FC011092FB01280F209325
:10073000FA019093D9019091D901660F692B6093CA
:10074000D90190914904913061F41092490490913B
:10075000D9019093BB009091BC0093FDF8CF95EC2C
:1007600001C095EE9093BC0090914B049130E1F361
:100770009091FB01981710F48091FB01AAEDB1E074
:100780002FE132E0F9019E2F921B981718F49D91EA
:100790009193F9CF10924F0480934E0408951F92C5
:1007A0000F920FB60F9211242F933F934F935F93A5
:1007B0006F937F938F939F93AF93BF93EF93FF9329
:1007C0008091B900887F803609F49CC068F5883232
:1007D00009F45BC090F4803109F454C038F48823E4
:1007E00009F4F6C0883009F44DC0F6C0883109F428
:1007F0004CC0803209F45DC0EFC0803409F468C099
:1008000048F4803309F455C0883309F0E5C080937B
:10081000FC01D8C0803509F44FC0883509F45DC0AB
:10082000883409F0D9C0D6C0883909F4C7C0A8F403
:10083000883709F467C038F4883609F463C0803714
:1008400009F460C0C9C0883809F4B8C0803909F417
:100850005FC0803809F0C0C05BC0803B09F486C02F
:1008600038F4803A09F466C0883A09F47FC0B4C00D
:10087000803C09F4A7C0883C09F4A4C0883B09F473
:100880008AC0AAC08091D90110C09091FB018091CB
:10089000FA01981770F5E091FB0181E08E0F8093CB
:1008A000FB01F0E0E652FE4F80818093BB0085ECB7
:1008B00086C08093FC018EC0E091FB0181E08E0F29
:1008C0008093FB018091BB00F0E0E652FE4F8083F5
:1008D0009091FB018091FA016EC0E091FB0181E0F3
:1008E0008E0F8093FB018091BB00F0E0E652FE4F3B
:1008F000808380914A0481116DC081E08093490416
:1009000084EA61C083E080934B041092D801CFCF7A
:100910008091D801803208F051C0E091D80181E087
:100920008E0F8093D8018091BB00F0E0E854FE4F19
:100930008083BDCF85EC8093BC0010924B048091E6
:10094000D801803230F4E091D801F0E0E854FE4F55
:1009500010826091D80170E0E091B601F091B7018A
:1009600088EB91E009951092D80136C084E080931D
:100970004B041092B5011092B401E091B201F091D4
:10098000B30109958091B401811105C081E0809384
:10099000B40110929201E091B50181E08E0F809335
:1009A000B501F0E0EE56FE4F80818093BB00909140
:1009B000B5018091B401981708F479CF85E8809348
:1009C000BC000AC085EC8093BC0010924B0404C0AC
:1009D0001092FC010E943C01FF91EF91BF91AF91F9
:1009E0009F918F917F916F915F914F913F912F9147
:1009F0000F900FBE0F901F9018952F923F924F921D
:100A00005F926F927F928F929F92AF92BF92CF929E
:100A1000DF92EF92FF920F931F93CF93DF93CDB7A7
:100A2000DEB7CD58D1090FB6F894DEBF0FBECDBFEB
:100A30000E94051C6B017C0180918E0190918F01B9
:100A4000A0919001B0919101A7019601281B390B4B
:100A50004A0B5B0BDA01C901803A9B4BAD40B105F3
:100A600008F4E2C561E08AE00E94591B68E688E369
:100A700095E00E94EF0260E088E395E00E949E010D
:100A800088E395E00E94920247E050E068E670E05B
:100A900088E395E00E94840388E395E00E941C01AE
:100AA00088E395E00E941C0188E395E00E941C0108
:100AB00088E395E00E941C0188E395E00E941C01F8
:100AC00088E395E00E941C019C013327F4E03595F2
:100AD0002795FA95E1F71AEF282E129F200C112482
:100AE00088E395E00E941C019C013327A4E0359522
:100AF0002795AA95E1F7129F800D1124482F50E009
:100B0000C857DF4F59834883C858D040C0928E01E0
:100B1000D0928F01E0929001F0929101C258DF4F84
:100B200019821882CE57D040C058DF4F19821882E0
:100B3000C058D040CE57DF4F19821882C258D040DB
:100B400040E050E065E771E0CE0182589F4F0E947F
:100B50008E0C0E94F9028C010E94ED146C01E12CB4
:100B6000F12CD801BC908B2D8295880F880F807C4A
:100B7000B4E3BB2EB80E67E788E395E00E94EF026E
:100B800064EF88E395E00E949E016B2D88E395E079
:100B90000E949E0188E395E00E949202F801808104
:100BA000811105C065E070E080E090E012C0813006
:100BB00029F468E070E080E090E00BC0823029F416
:100BC0006EE070E080E090E004C06AE170E080E0F8
:100BD00090E00E94CB1B66EFC8010E94670D4C019C
:100BE000A12CB12CBA2CA92C982C882468EFC80110
:100BF0000E949A0DA5019401282BCC57DF4F288322
:100C000039834A835B83C458D040D8013C905596C1
:100C10008D919C915697A7019601281B390B41098C
:100C2000510953960D90BC91A02D0E9465226B0135
:100C30007C019FE0F594E794D794C7949A95D1F7F7
:100C4000F80165857685CB01770FAA0BBB0BBC013C
:100C5000CD012BE0660F771F881F991F2A95D1F7CA
:100C6000278530894901330FAA08BB08A7019601DF
:100C7000280D391D4A1D5B1D0E940224C20ED31E81
:100C8000E41EF51EF0EACF1AFFE0DF0AE108F108E2
:100C9000A7019601C701B6010E94C4232B013C01A4
:100CA0006CE075946794579447946A95D1F7D8018E
:100CB00011960D90BC91A02DC657DF4FB983A88324
:100CC000CA58D040F801A581B6810E9421244B0169
:100CD0005C017DE0B594A794979487947A95D1F7B9
:100CE000A781B085A30192010E942124BB2797FD13
:100CF000B095AB2F880D991DAA1DBB1D0296A11D95
:100D0000B11D22E0B595A795979587952A95D1F7BE
:100D10009C01AD0130584F4F5F4FA189B2890E94AD
:100D200065224B015C013FE0B694A79497948794A9
:100D30003A95D1F788E090E083199109CC57DF4FBD
:100D4000288139814A815B81C458D04004C05695BE
:100D50004795379527958A95D2F7CC57DF4F28834B
:100D600039834A835B83C458D040C657DF4FE8813C
:100D7000F981CA58D040CF01FF0FAA0BBB0B9C01D1
:100D8000AD0162E0220F331F441F551F6A95D1F752
:100D9000C657DF4F288339834A835B83CA58D040C4
:100DA000F801A185B285A30192010E9421242B01A3
:100DB0003C017BE075946794579447947A95D1F7FA
:100DC000A381B481A70196010E942124DC01CB01FB
:100DD000EBE0B595A79597958795EA95D1F7840DA2
:100DE000951DA61DB71DC657DF4F288139814A8141
:100DF0005B81CA58D040820F931FA41FB51F032CDC
:100E000004C0880F991FAA1FBB1F0A94D2F7BC0108
:100E1000CD016E5F7F4F8F4F9F4F24E030E040E069
:100E200050E00E940224CC57DF4F88819981AA812B
:100E3000BB81C458D040821B930BA40BB50B9C0103
:100E4000AD0180E593ECA0E0B0E0BC01CD0104C0B1
:100E500096958795779567953A94D2F70E94C42323
:100E600097FD0BC0660F771F881F991FA50194017E
:100E70000E94E02369017A010AC0A50194010E9441
:100E8000E02369017A01CC0CDD1CEE1CFF1C9927C4
:100E9000F7FC9A958F2D7E2D6D2D9B01AC010E9444
:100EA000C4239B01AC01AEEDBBE00E9465224C0166
:100EB000BB2497FCB094AB2CA3E4B3EEA70196013E
:100EC0000E942424BB2797FDB095AB2F880D991D58
:100ED000AA1DBB1D8153914FAF4FBF4F44E0B59545
:100EE000A795979587954A95D1F71CA21BA21EA29C
:100EF0001DA218A61FA2BC01CD016C0D7D1D8E1D6B
:100F00009F1D2AE0AE014F5F5F4F0E94A91EBE01E8
:100F10006F5F7F4FCE0183960E94B90CBE016D5D5D
:100F20007F4FCE0182589F4F0E945D0CCE01839669
:100F30000E94DA0C0E94F9028C010E94ED14AC01AF
:100F400060E070E0D80155968D919C9156979A017A
:100F5000AB01281B390B4109510953960D90BC91E7
:100F6000A02D0E9465226B017C015FE0F594E7945F
:100F7000D794C7945A95D1F7F80165857685CB014A
:100F8000770FAA0BBB0BBC01CD01ABE0660F771F3F
:100F9000881F991FAA95D1F7278530898901330FBA
:100FA000220B330BA90198012C0D3D1D4E1D5F1D19
:100FB0000E940224D701C601820F931FA41FB51FF0
:100FC0000896A11DB11DBC01CD01B4E09595879592
:100FD00077956795BA95D1F70E946C2120E030E0B3
:100FE00040E251E40E942323AB01BC0122E0CE0188
:100FF00001960E94DF0CBE016F5F7F4FCE018258C9
:101000009F4F0E945D0CCE0101960E94DA0C0E9457
:10101000F90263EE47960E940F158C7FBC0180E0B9
:1010200090E00E946A2122E538EB4FE25BE30E94E8
:10103000A72126E636E64BE352E40E94B622AB0136
:10104000BC0122E0CE0101960E94DF0CBE016F5F61
:101050007F4FCE0182589F4F0E945D0CCE010196BA
:101060000E94DA0C0E94F90265EE47960E940F1565
:101070008C7FBC0180E090E00E946A2120E030E09B
:101080004AEF5AE30E94A72120E030E040EC50E410
:101090000E94B622AB01BC0122E0CE0101960E9463
:1010A000DF0CBE016F5F7F4FCE0182589F4F0E94C1
:1010B0005D0CCE0101960E94DA0C0E94F9028C01AF
:1010C00041E050E069E370E0DC0158968D919C911D
:1010D00059970E948403813019F08FEF9FEF27C04A
:1010E000F801808D918DDC01ED91FC910284F385F6
:1010F000E02D0995F82E41E050E068E370E0F8013A
:10110000808D918D0E948403813039F7D8015896E3
:101110008D919C915997DC01ED91FC910284F385AE
:10112000E02D099520E030E03F2D822B932B1CA26F
:101130001BA21EA21DA218A61FA24AE0BE016F5F3D
:101140007F4F0E94DA1EBE016F5F7F4FCE018396F4
:101150000E94B90CBE016D5D7F4FCE0182589F4F3A
:101160000E945D0CCE0183960E94DA0C0E94F90267
:10117000FC01638D748D42E050E088E395E00E94AD
:10118000840388E395E00E941C0100E010E0182F22
:1011900088E395E00E941C01802B912BBC0180E02C
:1011A00090E00E946A212AE939E949E95FE30E9457
:1011B00023231CA21BA21EA21DA218A61FA20E94CE
:1011C0009523DC01CB014AE0BE016F5F7F4F0E9497
:1011D000DA1EBE016F5F7F4FCE0183960E94B90C6D
:1011E000BE016D5D7F4FCE0182589F4F0E945D0C06
:1011F000CE0183960E94DA0CC857DF4F688179814F
:10120000C858D0406053784F660F771F620D711D2C
:1012100064597E4FEA961FAE1EAEEA97EC961FAE5B
:101220001EAEEC97EE961FAE1EAEEE9761157105E1
:1012300069F0FB0101900020E9F73197AF01461BEF
:10124000570BCE0188589F4F0E948E0CEA968EACA9
:101250009FACEA971EA21DA284E391E09CA38BA3FE
:1012600018A61C821B829A8389831E82CE018396D4
:101270000E94B71974019E012F5F3F4F69018E01D3
:101280000D5D1F4F6FE270E0C7010E94412600977D
:1012900009F44DC0D7012C912F3249F4BFEFEB1A5E
:1012A000FB0A9C2D8D2D6801092F182F3AC08E192D
:1012B0008D3008F08CE0A82EB12CA501B701CE012D
:1012C000835A9F4F0E945326EDE5F0E0EC0FFD1F7F
:1012D000EA0DFB1D1082C6010E949F0FF601858159
:1012E000882381F024961FAE1EAE249784E391E0FC
:1012F00022969FAF8EAF229726961FAE2697E12C9F
:10130000F12C71C021E0AE01435A5F4FB801C60114
:101310000E94DB17882331F3EA0CFB1CC8010E94F2
:101320009F0F902F812F8601C92ED82EABCFE818A2
:10133000F908D80112968D919C91139724969FAF2E
:101340008EAF249784E391E022969FAF8EAF2297D1
:1013500014968C91149725968FAF259715968C919E
:10136000159726968FAF269716968D919D910D9085
:10137000BC91A02D2A968CAF9DAFAEAFBFAF2A9780
:10138000F80182859385A485B5852E968CAF9DAF97
:10139000AEAFBFAF2E9786859785A089B18962963B
:1013A0008CAF9DAFAEAFBFAF6297828963968FAFB0
:1013B000639783899489A589B68967968CAF9DAF19
:1013C000AEAFBFAF67978789908DA18DB28D6B96B9
:1013D0008CAF9DAFAEAFBFAF6B97838D948D6D9685
:1013E0009FAF8EAF6D978E0C9F1CD4018C91811195
:1013F00051C024968EAD9FAD24979C838B8384E34C
:1014000091E09A83898325968FAD25978D832696C3
:101410008FAD26978E832A968CAD9DADAEADBFADB8
:101420002A978F839887A987BA872E968CAD9DAD12
:10143000AEADBFAD2E978B879C87AD87BE8762967A
:101440008CAD9DADAEADBFAD62978F87988BA98BEC
:10145000BA8B63968FAD63978B8B67968CAD9DAD82
:10146000AEADBFAD67978C8B9D8BAE8BBF8B6B96F4
:101470008CAD9DADAEADBFAD6B97888F998FAA8FA8
:10148000BB8F6D968EAD9FAD6D979D8F8C8F41E715
:1014900051E079C01EA21DA204E311E01CA30BA31E
:1014A00018A626968FAD269781111CC0A1961FAE57
:1014B0001EAEA19788EE93E0A0E0B0E0A5968CAFB9
:1014C0009DAFAEAFBFAFA59780E191E06F969FAFA4
:1014D0008EAF6F97E8961FAE1EAEE897AA961FAE26
:1014E000AA9759C027E1A401BE01605C7F4FCE01DD
:1014F00083960E94DB178823C9F2CE01805C9F4F40
:101500000E949F0F4EA95FA968AD79ADCE01839669
:101510000E94010E8DA19EA19C838B831A83098357
:101520008FA18D8388A58E8389A59AA5ABA5BCA51F
:101530008F839887A987BA878DA59EA5AFA5B8A9DF
:101540008B879C87AD87BE8789A99AA9ABA9BCA9BF
:101550008F87988BA98BBA8B8DA98B8B8EA99FA90E
:10156000A8ADB9AD8C8B9D8BAE8BBF8B8AAD9BAD7F
:10157000ACADBDAD888F998FAA8FBB8F8EAD9FAD5F
:101580009D8F8C8FA401BE016F5F7F4FCE01835A68
:101590009F4F0E949515E896EEADFFADE897309706
:1015A00089F18581882371F1CE57DF4F48815981B8
:1015B000C258D040C258DF4F68817981CE57D040A1
:1015C000CE01835A9F4F0E94C01442E050E063E76F
:1015D00071E0CE01835A9F4F0E94C014E8968EADF1
:1015E0009FADE897009761F00E949F0FE8968EAD3F
:1015F0009FADE8970E94C424E8961FAE1EAEE89700
:1016000060E001C061E08AE00E94591B60E08AE06E
:101610000E94591BCE0188589F4F0E94DA0CCE01C0
:1016200082589F4F0E94DA0CC357DF4F0FB6F894D1
:10163000DEBF0FBECDBFDF91CF911F910F91FF9005
:10164000EF90DF90CF90BF90AF909F908F907F9062
:101650006F905F904F903F902F900895CF92DF92C0
:10166000EF92FF920F931F93CF93DF936C017A0158
:101670008B01C0E0D0E0CE15DF0589F0D8016D9177
:101680008D01D601ED91FC910190F081E02DC60114
:101690000995892B11F47E0102C02196ECCFC70178
:1016A000DF91CF911F910F91FF90EF90DF90CF903E
:1016B0000895FC01538D448D252F30E0842F90E058
:1016C000821B930B541710F0CF960895019708953D
:1016D000FC01918D828D981761F0828DDF01A80F3A
:1016E000B11D5D968C91928D9F5F9F73928F90E05C
:1016F00008958FEF9FEF0895FC01918D828D9817CB
:1017000031F0828DE80FF11D858D90E008958FEF07
:101710009FEF0895FC01918D228D892F90E0805CD0
:101720009F4F821B91098F739927089580E594E05C
:101730000E948A0B21E0892B09F420E0822F089572
:10174000FC01848DDF01A80FB11DA35ABF4F2C915E
:10175000848D90E001968F739927848FA689B7892D
:101760002C93A089B1898C9180648C93938D848D06
:10177000981306C00288F389E02D80818F7D8083D5
:101780000895EF92FF920F931F93CF93DF93EC0195
:1017900081E0888F9B8D8C8D981305C0E889F9892D
:1017A000808185FD24C0F62E0B8D10E00F5F1F4F4A
:1017B0000F731127E02E8C8DE8120CC00FB607FCBA
:1017C000FACFE889F989808185FFF5CFCE010E94A3
:1017D000A00BF1CF8B8DFE01E80FF11DE35AFF4FF7
:1017E000F0820B8FEA89FB898081806207C0EE89D5
:1017F000FF896083E889F98980818064808381E042
:1018000090E0DF91CF911F910F91FF90EF9008959D
:10181000CF93DF93EC01888D8823C9F0EA89FB8997
:10182000808185FD05C0A889B9898C9186FD0FC08E
:101830000FB607FCF5CF808185FFF2CFA889B98963
:101840008C9185FFEDCFCE010E94A00BE7CFDF91F9
:10185000CF91089580E090E0892B29F00E94960BAB
:1018600081110C94000008950E9426260F931F9367
:10187000CF93DF93EC0188819981009729F02A8129
:101880003B812617370788F48B016F5F7F4F0E94DB
:101890005C25009761F0998388831B830A832C81E0
:1018A0003D81232B11F4FC01108281E001C080E016
:1018B000DF91CF911F910F910895EF92FF920F93B7
:1018C0001F93CF93DF93FB0124813581E080F1806A
:1018D000FC0104811581E114F10411F480E017C0CA
:1018E0002115310599F0EC01020F131FB8010E9478
:1018F000360C882399F3288139818C819D81B70129
:10190000820F931F0E944C261D830C8381E0DF9180
:10191000CF911F910F91FF90EF900895EF92FF925A
:101920000F931F93CF93DF93EC017B018A01BA01E0
:101930000E94360C2881398181110DC02115310595
:1019400019F0C9010E94C424198218821D821C82C8
:101950001B821A8206C01D830C83B701C9010E9435
:101960004C26CE01DF91CF911F910F91FF90EF9008
:101970000895CF93DF93EC016115710559F0FB01D8
:1019800001900020E9F73197AF01461B570B0E94E9
:101990008E0C0CC088819981009711F00E94C4249C
:1019A000198218821D821C821B821A82CE01DF914D
:1019B000CF910895FC01808191810C94C424EF9211
:1019C000FF920F931F93CF93DF93CDB7DEB7A1970D
:1019D0000FB6F894DEBF0FBECDBF7C01CB01BA01BC
:1019E000F70111821082138212821582148242E062
:1019F000420F8E010F5F1F4F0E94891EBC01C7015D
:101A00000E94B90CA1960FB6F894DEBF0FBECDBFF1
:101A1000DF91CF911F910F91FF90EF9008951F924A
:101A20000F920FB60F9211242F933F934F935F9312
:101A30006F937F938F939F93AF93BF93EF93FF9396
:101A400080E594E00E94A00BFF91EF91BF91AF91D0
:101A50009F918F917F916F915F914F913F912F91C6
:101A60000F900FBE0F901F9018951F920F920FB6F8
:101A70000F9211242F938F939F93EF93FF93E091F5
:101A80006004F09161048081E0916604F091670444
:101A900082FD12C09081809169048F5F8F732091C5
:101AA0006A04821751F0E0916904F0E0E05BFB4FBB
:101AB000958F8093690401C08081FF91EF919F9180
:101AC0008F912F910F900FBE0F901F901895CF936D
:101AD000DF93C62F67E788E395E00E94EF026C2F43
:101AE00088E395E00E949E0188E395E00E949202BF
:101AF00067E788E395E00E94EF0242E050E067E785
:101B000070E088E395E00E94840388E395E00E94FA
:101B10001C01D82F80E0C82F88E395E00E941C01AB
:101B2000C82BD92B88E395E00E949202CE01DF9169
:101B3000CF910895CF93C62F67E788E395E00E9481
:101B4000EF026C2F88E395E00E949E0188E395E008
:101B50000E94920267E788E395E00E94EF0241E06D
:101B600050E067E770E088E395E00E94840388E333
:101B700095E00E941C01C82F88E395E00E94920224
:101B80008C2FCF910895CF93DF93EC018D81882323
:101B9000A1F18C8187FF2DC06E857F858889998909
:101BA00041E00E940516882341F1EA8980E2E89F1E
:101BB000F0011124DF01A95BBD4F1097F1F08D8179
:101BC000823050F44B895C896D897E895C964D9397
:101BD0005D936D937C935F978F89988DA98DBA8D56
:101BE000E95BFD4F938F828FB58BA48B8C818F77B0
:101BF0008C83DF91CF910C94CA1580E0DF91CF9157
:101C000008958F929F92AF92BF92CF92DF92EF9200
:101C1000FF920F931F93CF93DF93EC018D8181117E
:101C200002C080E077C00B891C892D893E8904178A
:101C3000150726073707A8F36A017B01823029F4CC
:101C4000CA86DB86EC86FD860DC0C114D104E10492
:101C5000F10451F41E821F82188619861A861B868B
:101C60001C861D8681E056C08A849B84AC84BD841A
:101C7000EB8DFC8D258530E0275F3F4FB501A4013A
:101C80004150510961097109022E04C0769567958A
:101C9000579547950A94D2F7D701C6010197A10934
:101CA000B10904C0B695A795979587952A95D2F75F
:101CB00084179507A607B70720F089288A288B285C
:101CC00049F44F89588D698D7A8D4E835F8368877B
:101CD000798704C0841B950BA60BB70B4C015D01E3
:101CE0008E010A5F1F4F81149104A104B10409F40D
:101CF000A7CF4E815F816885798598018B8D9C8DFA
:101D00000E94EE1691E0891A9108A108B10881118C
:101D1000EACF87CFDF91CF911F910F91FF90EF9086
:101D2000DF90CF90BF90AF909F908F9008958F924B
:101D30009F92AF92BF92CF92DF92EF92FF920F935A
:101D40001F93CF93DF9300D000D0CDB7DEB77C01D7
:101D500080E2689F600111249601295B3D4FD90103
:101D60001B969C91917121F0842F827409F097C089
:101D7000142FF701628B8091000190910101A091D5
:101D80000201B091030186879787A08BB18BF60182
:101D9000E95BFD4F4489558960E070E0BA01552741
:101DA0004427D70157964D935D936D937C935A9733
:101DB000828D938DA0E0B0E0482B592B6A2B7B2BB2
:101DC000D70157964D935D936D937C935A97D901A4
:101DD0001B968C91887159F4848D958DA68DB78D45
:101DE000F701838B948BA58BB68B81E012C0803179
:101DF00009F055C097012D5E3F4FD7015B968D913D
:101E00009C915C970E947217882309F448C084E073
:101E1000F7018583812F8F70D70114968C931497C7
:101E2000F70116821782108611861A961D921D924E
:101E30001D921C921D9716FF34C015968C9181300F
:101E400071F511FF2CC0F7014389548965897689A2
:101E5000452B462B472B09F461C040E050E0BA0106
:101E6000C7010E94010E8823D1F0F7018788908C6A
:101E7000A18CB28CC38CD48C82E090E0A0E0B0E066
:101E8000F60180839183A283B3839E012F5F3F4F2E
:101E9000B501A401C6010E94EE16811104C080E0C4
:101EA0003DC081E03BC000E010E09801B501A40115
:101EB000C6010E944E16882391F389809A80AB80D8
:101EC000BC80D60157968C91803129F088EF9FEF26
:101ED000AFEFBFE004C088EF9FEFA0E0B0E088164E
:101EE0009906AA06BB0688F2D70157961D921D9245
:101EF0001D921C925A97F701138A148A158A168A22
:101F0000848180688483C7010E94C30D882339F2CD
:101F100040E050E0BA01C7010E94010E0F900F90FF
:101F20000F900F90DF91CF911F910F91FF90EF9045
:101F3000DF90CF90BF90AF909F908F900895CF93F8
:101F4000DF93EC010E94C30D882311F01D8281E014
:101F5000DF91CF9108953F924F925F926F927F925F
:101F60008F929F92AF92BF92CF92DF92EF92FF92A9
:101F70000F931F93CF93DF93CDB7DEB72C970FB698
:101F8000F894DEBF0FBECDBF5C01DC015B968D9087
:101F90009C905C971696CD90DD90ED90FC901997F3
:101FA000C114D104E104F10439F0BFEFCB1ADB0A0C
:101FB000EB0AFB0A312C07C0F401C080D180E2801B
:101FC000F38033243394F40181859285A385B4850D
:101FD0009C01AD012F5F3F4F4F4F5F4F29873A87DD
:101FE0004B875C87260137011D821E821F8218865F
:101FF000F40181859285A385B4852D813E814F8131
:102000005885281739074A075B0708F063C0898598
:102010009A85AB85BC858C159D05AE05BF0550F432
:1020200082E0C82ED12CE12CF12C92E0492E512CCB
:10203000612C712C9E012F5F3F4FB701A601C40197
:102040000E94EE16882309F445C089819A81AB81EC
:10205000BC81892B8A2B8B2B41F0260137019FEF06
:10206000491A590A690A790A05C0C414D504E60454
:10207000F70491F02D813E814F8158852F5F3F4FAE
:102080004F4F5F4F2D833E834F8358873FEFC31AD7
:10209000D30AE30AF30AACCF0FEF1FEF2FEF3FE0B5
:1020A000B301A201C4010E944E16882399F0D50104
:1020B00016964D915D916D917C9119974115510541
:1020C0006105710549F093018201C4010E944E1619
:1020D000811102C080E02AC0D50116964D925D9212
:1020E0006D927C921997332051F0D301C201019671
:1020F000A11DB11DF40180839183A283B383F501F7
:102100008789908DA18DB28D892B8A2B8B2B69F4B9
:10211000D50157964D925D926D927C925A97149686
:102120008C911497806814968C9381E02C960FB64E
:10213000F894DEBF0FBECDBFDF91CF911F910F91FD
:10214000FF90EF90DF90CF90BF90AF909F908F90D7
:102150007F906F905F904F903F900895AF92BF92A5
:10216000CF92DF92EF92FF920F931F93CF93DF9363
:10217000EC016901C801820F931F8130924008F081
:1021800070C08E81882371F088819981AA81BB817A
:10219000481759076A077B0729F48F819885C81665
:1021A000D906B0F5488359836A837B838B85833056
:1021B00039F089E0440F551F661F771F8A95D1F7C4
:1021C0009A01AB0161E1CE010E943002882319F02F
:1021D00083E08D8346C00E94051C5B010E94DF01E5
:1021E0008A878F3F49F40E94051C6A197B096D326A
:1021F0007140A0F38FE003C08E3F31F08DE08D83FE
:10220000CE010E94CD012DC018861F8281E08E83F1
:102210008F8198858C159D0540F40E94DF018F8188
:102220009885019698878F83F3CF6701E00EF11EA2
:10223000CE14DF0431F00E94DF01F60181936F01BB
:10224000F7CF8F819885080F191F18870F8389850D
:10225000882319F00115124048F0CE010E94FD01BB
:1022600005C0CE010E94CD0180E001C081E0DF9178
:10227000CF911F910F91FF90EF90DF90CF90BF9083
:10228000AF9008952F923F924F925F926F927F92FC
:102290008F929F92AF92BF92CF92DF92EF92FF9276
:1022A0000F931F93CF93DF9300D0CDB7DEB7FC0120
:1022B0008581882309F4D9C0848180FFD6C021E0BC
:1022C0002A83438954896589768982859385A48583
:1022D000B585481759076A077B0709F41A826F0109
:1022E0003A81832F90E0DE0111964D013F01B6E067
:1022F0006B0E711C892B09F47DC0D6011A964D9185
:102300005D916D917C911D975A01B1E0BB22F60160
:1023100025811A012B0189E056944794379427941C
:102320008A95D1F7838D948D223061F4FC01828DE2
:10233000938DA48DB58DBC01CD01620D731D841DDF
:10234000951D45C0DC0114961C9111501221A11459
:10235000B104D1F4111118C0452B462B472B51F471
:10236000F6018789908DA18DB28D86839783A08792
:10237000B1870AC0468157816085718593010E94AB
:10238000EE16882309F471C0F601238D348D868101
:102390009781A085B1850297A109B109AC01BD0162
:1023A000F901058404C0440F551F661F771F0A9466
:1023B000D2F786859785A089B189840F951FA61FBE
:1023C000B71FBC01CD01610F711D811D911DD6018B
:1023D00014962C9126FF14C0009100011091010168
:1023E0002091020130910301601771078207930762
:1023F00051F506C0FA81FF23C1F1898190E037C011
:1024000040E00E940516882381F1F501E95BFD4F4C
:10241000D401CF010196E817F90719F021912D9306
:10242000FACFEFEF8E1A9E0AF60182859385A48576
:10243000B5850196A11DB11D82879387A487B587B5
:1024400080E090E057CF740101E010E09501AB010E
:10245000BC0180914704909148040E94AE108823EB
:1024600021F0BFEF8B1A9B0ADFCF8FEF9FEF0F900A
:102470000F90DF91CF911F910F91FF90EF90DF9020
:10248000CF90BF90AF909F908F907F906F905F9014
:102490004F903F902F9008958FB7F894809141020C
:1024A0008FBF0895EF92FF920F931F93CF93DF9307
:1024B000EC017901411551056105710511F482E1C5
:1024C0003CC08B85833039F089E0440F551F661F6F
:1024D000771F8A95D1F79A01AB0168E1CE010E947E
:1024E0003002882311F084E028C08EEF0E94D801CA
:1024F00087018EEFF81AF80181918F010E94D801AF
:102500000E151F05C1F78FEF0E94D8018FEF0E94B3
:10251000D8010E94DF018A878F71853031F081E117
:102520008D83CE010E94CD0109C068E572E0CE0125
:102530000E94E201811107C085E18D83CE010E94D6
:10254000CD0180E013C020E030E0A9016DE0CE01B4
:102550000E943002811104C00E94DF01882311F023
:1025600084E1EBCFCE010E94CD0181E0DF91CF91DC
:102570001F910F91FF90EF9008952F923F924F92ED
:102580005F926F927F928F929F92AF92BF92CF9203
:10259000DF92EF92FF920F931F93CF93DF9300D0C0
:1025A00000D0CDB7DEB78C015B011A01DC011596B6
:1025B0008C9115978130C9F414968C9181FF15C0C8
:1025C00082FF1BC0F8014389548965897689828519
:1025D0009385A485B58584179507A607B70769F085
:1025E000C8010E94010E811108C081E090E0F8014D
:1025F0009383828380E090E039C1610183C0D80178
:102600005B968D919C915C97FC01248121502A015D
:102610003B0139E076946794579447943A95D1F703
:10262000722E74207A01F1E0FF22772009F476C03F
:1026300080E092E08E199F0946018C159D0508F4F3
:102640004C01D8015B962D913C915C9716968D912B
:102650009D910D90BC91A02D0297A109B109F9019E
:10266000058404C0880F991FAA1FBB1F0A94D2F7C4
:102670004685578560897189840F951FA61FB71FEE
:102680009C01AD01270D311D411D511D29013A014C
:10269000811432E0930609F088C080910001909186
:1026A0000101A0910201B091030184159505A605D1
:1026B000B70559F48FEF9FEFDC01809300019093F1
:1026C0000101A0930201B09303019501B301A2019E
:1026D00080914704909148040E945212882309F483
:1026E00084CF9EEFB91AC818D908F801828593855E
:1026F000A485B585880D991DA11DB11D828793877D
:10270000A487B587D8011A964D915D916D917C9102
:102710001D97C114D10409F072CF87C0E114F104F0
:1027200009F086CF16964D915D916D917C91199728
:10273000411551056105710559F457968D919D918B
:102740000D90BC91A02D0097A105B10541F521C0C8
:102750009E012F5F3F4F0E94EE16882309F44BCF56
:1027600089819A81AB81BC81F801238D348DF90177
:102770002789203129F048EF5FEF6FEF7FE004C039
:1027800048EF5FEF60E070E084179507A607B70792
:1027900030F0C8010E94AB0F81114ACF26CFF8015B
:1027A00086839783A087B18743CFE114F10429F58D
:1027B000D8011A964D915D916D917C911D9753961C
:1027C0008D919D910D90BC91A02D481759076A07D6
:1027D0007B0798F00E94CA15882309F406CF40921F
:1027E00000015092010160920201709203018091F8
:1027F000420281608093420208C041E0C301B201FD
:102800000E940516882309F4F0CED501F701E95B93
:10281000FD4FCF01880D991DE817F90719F02D918B
:102820002193FACFA80CB91C5ECF53968D919D9140
:102830000D90BC91A02D84179507A607B70740F40B
:10284000F801438B548B658B768B848180688483FD
:10285000D80114968C9183FD02C0C10107C0C80144
:102860000E94C30D882309F4C0CEF7CF0F900F90BC
:102870000F900F90DF91CF911F910F91FF90EF90EC
:10288000DF90CF90BF90AF909F908F907F906F9090
:102890005F904F903F902F900895DC015996ED91F5
:1028A000FC915A973097B9F083899489A589B689A4
:1028B0004285538564857585841B950BA60BB70BE4
:1028C000811520E89207A105B10538F08FEF9FE749
:1028D000A0E0B0E0089580E090E00895CF93DF930A
:1028E0001F92CDB7DEB76983DC01ED91FC910280C8
:1028F000F381E02D41E050E0BE016F5F7F4F09950D
:102900000F90DF91CF910895FC01818D928D0097FA
:1029100011F00C94C30D0895FC01818D928D0097E8
:1029200011F00C9442118FEF9FEF08950F931F93B6
:10293000CF93DF93FC01818D928D0097B9F0EF0169
:102940000E9442118C010F3F8FEF180791F0898D83
:102950009A8DFC01428553856485758541505109E6
:10296000610971090E94010EC80105C080E090E074
:1029700002C08FEF9FEFDF91CF911F910F910895CC
:10298000CF93DF93EC01898D9A8D009739F481E024
:1029900090E09B838A8380E090E00BC0FC0113826F
:1029A00012820E94BD12E98DFA8D22813381232B80
:1029B00071F7DF91CF910895CF93DF931F92CDB739
:1029C000DEB7698341E050E0BE016F5F7F4F0E9438
:1029D000BD120F90DF91CF910895CF93DF93EC015B
:1029E00067E788E395E00E94EF0264EF88E395E0F3
:1029F0000E949E016EE288E395E00E949E0188E3BA
:102A000095E00E94920265E070E080E090E00E9414
:102A1000CB1B66EFCE01DF91CF910C94670DFF9237
:102A20000F931F93CF93DF93C62F60E488E395E065
:102A30000E94EF026C2F88E395E00E949E0188E3DC
:102A400095E00E94920243E050E060E470E088E389
:102A500095E00E94840380914E0490E020914F0401
:102A6000821B91092FE431E08330910524F4F901B0
:102A70003197F1F7F9CF88E395E00E941C01F82E19
:102A8000C82F88E395E00E941C01D82F88E395E0C9
:102A90000E941C0198E031E32C2F220FC7FD07C0D4
:102AA000C22F9150C9F7CD2798E031E307C0C22F5C
:102AB000C327F7CFC22FC327915031F02C2F220FFD
:102AC000C7FDF8CFC22FF8CFC81306C01F2D00E0F6
:102AD000C8018D0F911D16C060E488E395E00E9447
:102AE000EF026EEF88E395E00E949E0188E395E097
:102AF0000E9492026FE070E080E090E00E94CB1BA9
:102B000081E090E0DF91CF911F910F91FF900895A8
:102B1000FC01908190539A3008F090E081818053BD
:102B20002AE0929F800D11240895EF92FF920F9357
:102B30001F93CF93DF93EC017B018A011B821A82E2
:102B400088EE93E0A0E0B0E08C839D83AE83BF83EA
:102B500080E191E0998388838DE190E00E942F24A9
:102B60009A8F898F009779F02DE1F701DC010190B0
:102B70000D922A95E1F74CE050E0B801CE010C9699
:102B80000E945326188EDF91CF911F910F91FF90D5
:102B9000EF900895809142028823A9F140910001AD
:102BA00050910101609102017091030127E432E02C
:102BB00080914704909148040E945212811102C0F2
:102BC00080E0089540914302509144026091450293
:102BD00070914602411551056105710591F027E498
:102BE00032E080914704909148040E945212882359
:102BF00039F310924302109244021092450210924F
:102C000046021092420281E008958F929F92AF9205
:102C1000BF92EF92FF920F931F93CF934B015C01F2
:102C2000C42F8091000190910101A0910201B09107
:102C3000030188159905AA05BB0501F10E94CA1573
:102C4000811102C080E020C087E4E82E82E0F82EE7
:102C500000E012E020E030E0B501A40180914704DB
:102C6000909148040E94AE10882361F38092000185
:102C700090920101A0920201B09203018091420260
:102C8000C82BC093420281E0CF911F910F91FF901A
:102C9000EF90BF90AF909F908F9008954F925F926A
:102CA0006F927F928F929F92AF92BF92CF92DF925C
:102CB000EF92FF920F931F93CF93DF93EC016A0182
:102CC0007B0128013901423051056105710510F47D
:102CD00080E073C089859A85AB85BC850196A11D6E
:102CE000B11D84179507A607B70790F38B889C88BA
:102CF000AD88BE888F89803129F4BB27AF2D9E2DEA
:102D00008D2D09C0DB01CA0147E0B695A7959795BF
:102D100087954A95D1F7880E991EAA1EBB1E8091F1
:102D2000000190910101A0910201B0910301881668
:102D30009906AA06BB0679F48F898031A1F4DD24B7
:102D4000EE24FF24C601880F991FFC01E95BFD4FAB
:102D50005182408219C040E0C501B4010E940516AD
:102D60008111EACFB5CFE894C7F8DD24EE24FF2423
:102D7000C601880F991F880F991FFC01E95BFD4F61
:102D8000408251826282738280914202816080938C
:102D900042028A89823080F08D819E81AF81B88520
:102DA000880E991EAA1EBB1E809243029092440276
:102DB000A0924502B092460281E0DF91CF911F912F
:102DC0000F91FF90EF90DF90CF90BF90AF909F90CA
:102DD0008F907F906F905F904F9008958F929F9209
:102DE000AF92BF92CF92DF92EF92FF920F931F9319
:102DF000CF93DF93FC0181859285A385B4850196ED
:102E0000A11DB11D84179507A607B70710F480E030
:102E10005CC083899489A589B689C789C03129F4A2
:102E2000852E962EA72EBB2409C04A015B01C7E060
:102E3000B694A79497948794CA95D1F7E9016A014B
:102E40007B018F01BC01CD01680D791D8A1D9B1D81
:102E50008090000190900101A0900201B0900301C8
:102E6000681579058A059B0599F4F80187898031F1
:102E7000A9F4B701A601552766277727440F551FE8
:102E8000FA01E95BFD4F80819181A0E0B0E018C0BC
:102E900040E00E9405168111E8CFB9CFB701A60125
:102EA0004F77552766277727440F551F440F551F27
:102EB000FA01E95BFD4F80819181A281B381BF70EE
:102EC00088839983AA83BB8381E0DF91CF911F918F
:102ED0000F91FF90EF90DF90CF90BF90AF909F90B9
:102EE0008F9008954F925F926F927F92AF92BF92B0
:102EF000CF92DF92EF92FF920F931F93CF93DF93C6
:102F000000D000D0CDB7DEB78C0149835A836B83E4
:102F10007C835901C12CD12C7601412C82E0582EA2
:102F2000612C712C49815A816B817C819E012F5FBC
:102F30003F4FC8010E94EE16882351F1D301C20110
:102F4000F801058404C0880F991FAA1FBB1F0A94AB
:102F5000D2F7C80ED91EEA1EFB1E49815A816B8129
:102F60007C818789803129F088EF9FEFAFEFBFE048
:102F700004C088EF9FEFA0E0B0E0481759076A0748
:102F80007B0780F2F501C082D182E282F38281E088
:102F90000F900F900F900F90DF91CF911F910F9195
:102FA000FF90EF90DF90CF90BF90AF907F906F90A9
:102FB0005F904F9008954F925F926F927F92AF9281
:102FC000BF92CF92DF92EF92FF920F931F93CF9316
:102FD000DF93CDB7DEB72B970FB6F894DEBF0FBEE9
:102FE000CDBF7C01CE0101966C01FC0190E28BE02B
:102FF0008C0D91938E13FDCFDA0130E047E09D9167
:10300000992339F19E3219F0E2E6F1E00AC04A3024
:1030100009F472C138E04AE0F2CF3196891709F419
:103020006BC184918111F9CF431708F465C18FED0D
:10303000890F8E3508F060C181E0830FF601E30F40
:10304000F11D3FE9390F3A3108F490529083382F3F
:10305000D6CF8981803209F44FC1B22E8B01DB01BA
:103060005B968D919C915C97F701948F838F169658
:103070001D921D921D921C921997FB0112861386B8
:1030800014861586712CF80182859385A485B585F3
:10309000438954896589768984179507A607B707F8
:1030A00008F061C025E0B695A795979587952A9574
:1030B000D1F7F82FFF706F2ED80115968C918230C2
:1030C00008F41AC1C8010E94421197FD15C1F80108
:1030D00082859385A485B5854F96A11DB11D8287F4
:1030E0009387A487B587F0E26F9EC0011124BC01CD
:1030F000695B7D4F6115710509F4FEC0DB012C9100
:10310000222319F0253EC1F427C071100EC0F7012B
:10311000628A409100015091010160910201709119
:10312000030146875787608B718BFC01E95BFD4F7C
:103130008081811113C015C04BE050E0C6010E9490
:103140002B26892B09F09FCF8B2D8073803309F4B8
:10315000D3C04B2D662DCCC07720C9F27724739451
:1031600092CF772473948B2D8271823109F0C4C081
:103170007720D1F0D7011E966D917D918D919C9114
:10318000519741E00E940516882309F4B5C0F70164
:103190006289F0E26F9FB0011124695B7D4F611578
:1031A000710509F079C0A8C0D80115968C918230BC
:1031B00009F4A2C0C8010E94AB0F882309F49CC087
:1031C000D8015B96ED91FC915C9716964D905D90C1
:1031D0006D907C901997B2E04B1A51086108710804
:1031E000058404C0440C551C661C771C0A94D2F755
:1031F00086859785A089B189480E591E6A1E7B1E57
:10320000A480E1E04E1A510861087108AA2009F172
:103210000E94CA15882309F46FC0E7E4F2E0119216
:1032200024E0E734F207D9F7D301C2018A0D911DDA
:10323000A11DB11D8093000190930101A093020193
:10324000B093030180914202816080934202AA946C
:10325000DDCFD8015B96ED91FC915C9780E092E028
:10326000A0E0B0E0058404C0880F991FAA1FBB1F0F
:103270000A94D2F7F8014389548965897689840FC5
:10328000951FA61FB71F838B948BA58BB68BD70179
:1032900052961C9267E472E080E2FB0111928A95DB
:1032A000E9F78BE0F601DB0101900D928A95E1F7D9
:1032B00081E298E2DB0151969C938E93509720E037
:1032C00038E01F963C932E931E9753969C938E93B3
:1032D000529759969C938E93589757963C932E935A
:1032E00056970E94CA15882339F04B2DF701628941
:1032F000C7010E94970E01C080E02B960FB6F8948C
:10330000DEBF0FBECDBFDF91CF911F910F91FF9018
:10331000EF90DF90CF90BF90AF907F906F905F90D5
:103320004F9008953FB7F8948091490590914A05D0
:10333000A0914B05B0914C0526B5A89B05C02F3F29
:1033400019F00196A11DB11D3FBFBA2FA92F982FCB
:103350008827820F911DA11DB11DBC01CD0142E046
:10336000660F771F881F991F4A95D1F70895CF934D
:10337000DF93FC012581222311F080E049C0EC019C
:10338000809110058031C1F482E08583178A108E08
:10339000118E128E8091110590911205A0E0B0E07F
:1033A00025E0880F991FAA1FBB1F2A95D1F7838B91
:1033B000948BA58BB68B19C08032F9F683E0858398
:1033C00040911305509114056091150570911605F3
:1033D000478B508F618F728F9F012D5E3F4F89EF1A
:1033E00094E00E947217882341F289EF94E09C8F49
:1033F0008B8F81E08C831E821F82188619861A8625
:103400001B861C861D861E861F86188A198A1A8AA4
:10341000DF91CF9108958F929F92AF92BF92CF92FA
:10342000DF92EF92FF92CF93DF93C82F8DEE94E05F
:103430009093480480934704CC2369F1C53010F081
:1034400080E00DC140E060E070E0CB010E94051615
:103450008823B1F320E1C29FC0011124895C9D4FF4
:10346000FC01E254FE4F20812F7751F73C964081BA
:10347000518162817381443651056105710500F304
:103480003497C080D180E280F380C114D104E1047C
:10349000F10421F4D5CFC12CD12C760140E0C70135
:1034A000B6010E940516882359F28091520290912C
:1034B00053028115924021F6A0915702AA2309F4E4
:1034C000BFCF60915502709156026115710509F4E4
:1034D000B7CF20915402222309F4B2CFA0930B0559
:1034E0002093FD0480E030E0E1E0F0E0C82FAF0180
:1034F000082E02C0440F551F0A94E2F7241735071F
:1035000041F0982F8F5F983089F789E08093060506
:1035100097CF8093060520915D0230915E022115C0
:10352000310519F040E050E008C020916B02309165
:103530006C0240916D0250916E022093FE04309314
:10354000FF04409300055093010546015701860E84
:10355000971EA11CB11C80920C0590920D05A092A3
:103560000E05B0920F05E0915802F0915902F093C8
:103570001205E0931105B0E00E946522860E971EA9
:10358000A81EB91E8092130590921405A0921505ED
:10359000B092160585E0EE0FFF1F8A95E1F7E15026
:1035A000FE4FEF2FFF27E6958E0E9F1EA11CB11C2C
:1035B0008092070590920805A0920905B0920A052D
:1035C00020915A0230915B022115310521F0A901A9
:1035D00060E070E008C0409167025091680260911D
:1035E000690270916A02D701C60188199909AA096E
:1035F000BB09840F951FA61FB71F04C0B695A795DA
:1036000097958795CA95D2F7809302059093030505
:10361000A0930405B0930505853F2FE09207A1050F
:10362000B10510F48CE018C0853F9F4FA105B1058E
:1036300010F480E111C08091730290917402A09106
:103640007502B09176028093130590931405A093B0
:103650001505B093160580E28093100581E0DF9197
:10366000CF91FF90EF90DF90CF90BF90AF909F9061
:103670008F90089590E0FC01E255FE4F2491FC01EB
:10368000E656FE4F8491882399F090E0880F991FA9
:10369000FC01E057FE4FA591B491FC01EA57FE4FA3
:1036A000859194918FB7F894EC91E22BEC938FBFB6
:1036B000089590E0FC01EE58FE4F3491FC01E25574
:1036C000FE4F2491FC01E656FE4FE491EE2309F4EF
:1036D0003BC0332339F1333091F038F43130A9F065
:1036E000323001F584B58F7D12C0373091F038301B
:1036F000A1F03430B9F4809180008F7D03C08091B7
:1037000080008F77809380000DC084B58F7784BD53
:1037100009C08091B0008F7703C08091B0008F7D89
:103720008093B000F0E0EE0FFF1FEA57FE4FA59127
:10373000B4918FB7F894EC91611103C020952E23BA
:1037400001C02E2B2C938FBF089510924F0410921E
:103750004E0410924D0410924C0410924B0481E0E0
:1037600080934A041092490461E082E10E94591B4F
:1037700061E083E10E94591BE9EBF0E080818E7FDC
:10378000808380818D7F808388E48093B80085E486
:103790008093BC0008958F929F92AF92BF92CF9278
:1037A000DF92EF92FF926B017C010E9492194B0114
:1037B0005C01C114D104E104F104F1F00E949219FA
:1037C000DC01CB0188199909AA09BB09883E9340FD
:1037D000A105B10570F321E0C21AD108E108F10892
:1037E00088EE880E83E0981EA11CB11CC114D10480
:1037F000E104F10419F7DDCFFF90EF90DF90CF9057
:10380000BF90AF909F908F9008952FB7F8946091DC
:1038100045057091460580914705909148052FBF59
:1038200008951F920F920FB60F9211242F933F937A
:103830008F939F93AF93BF938091450590914605D9
:10384000A0914705B09148053091440523E0230F2E
:103850002D3720F40196A11DB11D05C026E8230FC8
:103860000296A11DB11D20934405809345059093B8
:103870004605A0934705B09348058091490590916E
:103880004A05A0914B05B0914C050196A11DB11DB3
:103890008093490590934A05A0934B05B0934C053E
:1038A000BF91AF919F918F913F912F910F900FBE3C
:1038B0000F901F901895789484B5826084BD84B56C
:1038C000816084BD85B5826085BD85B5816085BD1B
:1038D00080916E00816080936E00109281008091D3
:1038E000810082608093810080918100816080935B
:1038F0008100809180008160809380008091B10080
:1039000084608093B1008091B00081608093B000AA
:1039100080917A00846080937A0080917A0082603E
:1039200080937A0080917A00816080937A00809100
:103930007A00806880937A001092C1000E94A51BD3
:1039400080911C05882321F087E195E00E949F0F5C
:103950001092F8041092F6041092F3041092F204FC
:1039600084E08093F1040E94051CEB018091F10436
:103970000E943A1B61E08091F1040E94591B1FB71D
:10398000F89480914002811124C0E4EAF1E084912E
:10399000E8EBF1E09491E82FF0E0EE0FFF1FE05725
:1039A000FE4FA591B491EC91E92321F461E08AE006
:1039B0000E94591B8AE00E943A1B8CB580618CBD25
:1039C0008CB580648CBD8DE00E943A1B8BE00E9418
:1039D0003A1B809140028F5F809340021FBF82E5B7
:1039E0008093360510923705809136059091370502
:1039F0000E9417021AE08FEF0E94D8011150D9F7E8
:103A00008DEE94E00E941A0220E030E0A90160E00F
:103A10008DEE94E00E943002182F8093F7048130DD
:103A200049F00E94051C6C1B7D0B613D774060F3E3
:103A300081E054C02AEA31E040E050E068E08DEED9
:103A400094E00E94300282FF03C01093F8040EC07D
:103A500014E00E94DF018093F7041150D1F78A3AF5
:103A600011F082E03BC082E08093F8048091F8047A
:103A7000823021F0C12CD12C760105C0C12CD12C73
:103A8000E12C80E4F82E20E030E0A90167E38DEE20
:103A900094E00E943002A701960169E28DEE94E065
:103AA0000E9430028093F704882349F00E94051C8D
:103AB0006C1B7D0B613D774030F388E00FC0809137
:103AC000F804823001F520E030E0A9016AE38DEED0
:103AD00094E00E943002882341F086E08093F20453
:103AE0008DEE94E00E94CD0126C00E94DF01807C13
:103AF000803C19F483E08093F8040E94DF010E9467
:103B0000DF010E94DF018DEE94E00E94CD0180E58F
:103B1000809336051092370581E00E940B1A8823A6
:103B200029F087E195E00E94B71905C080E00E9466
:103B30000B1A8111F6CF0E94A51B68E688E395E079
:103B40000E94EF0260E088E395E00E949E0188E316
:103B500095E00E94920241E050E068E670E088E360
:103B600095E00E94840388E395E00E941C0187FF92
:103B700077C08FE791E00E948815C82F8AE791E00F
:103B80000E948815182F82E891E00E948815082F5E
:103B900085E891E00E948815F82E88E891E00E945F
:103BA0008815E82E68E688E395E00E94EF0260E061
:103BB00088E395E00E949E01DAE08E2D6D2F0E9431
:103BC000D423482F880F480F440F642F6E0D88E3CD
:103BD00095E00E949E018F2D6D2F0E94D423382FD7
:103BE000880F380F330F632F6F0D88E395E00E9425
:103BF0009E01802F6D2F0E94D423282F880F280F1D
:103C0000220F622F600F88E395E00E949E0160E022
:103C100088E395E00E949E01812F6D2F0E94D4239E
:103C2000982F880F980F990F692F610F88E395E0FF
:103C30000E949E0166E088E395E00E949E018C2F21
:103C40006D2F0E94D423682F660F680F660F6C0FCC
:103C500088E395E00E949E0188E395E00E9492022D
:103C60000E94FD040E942A0CFBCFE0E5F4E01382E1
:103C7000128288EE93E0A0E0B0E084839583A6836F
:103C8000B78322E231E03183208325EC30E03587B1
:103C9000248724EC30E03787268720EC30E0318B16
:103CA000208B21EC30E0338B228B22EC30E0358B03
:103CB000248B26EC30E0378B268B118E128E138EE0
:103CC000148EEDEEF4E0158216821186138642E022
:103CD00050E060E070E0448755876687778713A2DD
:103CE00015A614A624E331E033A722A717A6E6E31E
:103CF000F5E020E520831182E8E3F5E013821282EB
:103D000084839583A683B78380E491E09183808345
:103D10000895EF920F931F93CF93DF93E80147FD30
:103D200002C034E001C034E1E42F440FFF0BF7FF81
:103D300003C0F195E195F109E32E022F2E2FAE017C
:103D40000E94F41ECE01DF91CF911F910F91EF9051
:103D50000895BB272A3051F4992342F4BDE290958F
:103D60008095709561957F4F8F4F9F4F0C94B91E32
:103D7000BB27FA01A62F6217710581059105330B48
:103D800030FB66F0AA27660F771F881F991FAA1FAE
:103D9000A21710F0A21B63953850A9F7A05DAA33B3
:103DA00008F0A95DA19336F7B111B1931082CA0151
:103DB0000C945A21BB27FB015527AA27880F991F6E
:103DC000AA1FA41710F0A41B83955051B9F7A05D4A
:103DD000AA3308F0A95DA193009779F7B111B193C7
:103DE0001192CB010C945A214F925F926F927F9265
:103DF0009F92AF92BF92CF92DF92EF92FF920F937A
:103E00001F93CF93DF93CDB7DEB729970FB6F89402
:103E1000DEBF0FBECDBF6A01122FB02E2BE32017DD
:103E200020F0FF24F394F00E02C0BCE3FB2E0F2D14
:103E300027E0AE014F5F5F4F0E948220AC01898175
:103E4000982F9970913031F0E1FC06C0E0FE06C079
:103E500090E205C09DE203C09BE201C090E0EE2D20
:103E6000E07183FF3CC0911102C083E001C084E097
:103E7000811718F4212F281B01C020E0E1110BC08D
:103E8000F601822F30E2882319F031938150FBCF65
:103E9000C20ED11C20E0992329F0D6019C93F60193
:103EA00031966F01C6010396E2FE0AC03EE4D601D8
:103EB0003C9341E411964C93119712963C9306C0A3
:103EC0003EE6F601308341E641833283FC01322F26
:103ED00040E2332309F442C041933150FACF82FFCC
:103EE00044C0911102C083E001C084E0811718F43E
:103EF000212F281B01C020E0E1110BC0F601822F09
:103F000030E2882319F031938150FBCFC20ED11CCF
:103F100020E0992329F0D6019C93F60131966F0198
:103F2000C6010396E2FE0BC039E4D6013C933EE4A1
:103F300011963C93119736E412963C9307C039E6EC
:103F4000F60130833EE6318336E63283FC01322FC0
:103F500040E2332319F041933150FBCFFC01E20FD3
:103F6000F11D10828EEF9FEFB7C0F1E0911101C0FB
:103F7000F0E06F2F70E01416150624F49A012F5FFD
:103F80003F4F02C021E030E0260F371FBB2029F051
:103F90006B2D70E06F5F7F4F02C060E070E0260F16
:103FA000371F612F70E0261737071CF4121B212FD3
:103FB00001C020E03E2D387159F4D601322F60E265
:103FC000332319F06D933150FBCFC20ED11C20E08A
:103FD000FF2331F0D6019C93B6016F5F7F4F6B01D9
:103FE000E1110BC0F601922F30E3992319F03193C0
:103FF0009150FBCFC20ED11C20E09F2D940F3A812F
:10400000782F7071A72E84FF03C0313309F49150CB
:10401000191624F4993018F098E001C091E0E42FCB
:10402000852F57FF02C0E0E080E06E2F782FE0E0A0
:10403000F0E0AEE29A2E3A01691A71082A01461A96
:10404000570A0B2D10E01195019511096F3F8FEF65
:10405000780729F4D6019C92C60101966C01461797
:10406000570784F0661677066CF47F01E40CF51CA4
:10407000A1E0B0E0AC0FBD1FEA0EFB1ED701119608
:10408000BC9002C090E3B92E615071093196C6010F
:1040900001967C016017710724F0D601BC926C0177
:1040A000D5CF6417750741F4363320F4353321F446
:1040B000A11002C081E3B82EF601B082F701822F71
:1040C00090E2882319F091938150FBCFF701E20F22
:1040D000F11D108280E090E029960FB6F894DEBFC3
:1040E0000FBECDBFDF91CF911F910F91FF90EF9049
:1040F000DF90CF90BF90AF909F907F906F905F9038
:104100004F900895283008F027E03327DA01990FFF
:10411000311D87FD916000966105710539F43260AB
:104120002E5F3D9330E32A95E1F708959F3F30F0ED
:1041300080387105610509F03C5F3C5F3D9391302B
:1041400008F08068911DDF93CF931F930F93FF9228
:10415000EF92192F987F9695E92F96959695E90FEE
:10416000FF27EE53FF4F99273327EE24FF24A701A3
:10417000E70105900894079428F4360FE71EF81E0F
:10418000491F511D660F771F881F991F0694A1F7BD
:104190000590079428F4E70EF81E491F561FC11D0D
:1041A000770F881F991F661F0694A1F70590079443
:1041B00028F4F80E491F561FC71FD11D880F991FDD
:1041C000661F771F0694A1F70590079420F4490F06
:1041D000561FC71FD81F990F661F771F881F069489
:1041E000A9F784911095177041F0D695C79557950A
:1041F0004795F794E7941A95C1F7E8E6F0E06894DC
:104200001590159135916591959105907FE2739583
:10421000E118F10A430B560BC90BD009C0F7E10CAA
:10422000F11E431F561FC91FD01D7EF4703311F4B9
:104230008A95E6CFE894015030F0080F0AF4002781
:10424000021708F4202F2395022F7A3328F079E300
:104250007D932A95E9F710C07D932A9589F60694F7
:1042600097956795379517951794E118F10A430BC1
:10427000560BC90BD00998F023957E9173957A332C
:1042800008F070E37C932013B8F77E9170617D9302
:1042900030F0839571E37D9370E32A95E1F7112463
:1042A000EF90FF900F911F91CF91DF91992787FD9C
:1042B00090950895DC01FC01672F71917723E1F758
:1042C000329704C07C916D9370836291AE17BF07E3
:1042D000C8F30895E89409C097FB3EF49095809543
:1042E000709561957F4F8F4F9F4F9923A9F0F92FBC
:1042F00096E9BB279395F695879577956795B7953A
:10430000F111F8CFFAF4BB0F11F460FF1BC06F5F1F
:104310007F4F8F4F9F4F16C0882311F096E911C031
:10432000772321F09EE8872F762F05C0662371F052
:1043300096E8862F70E060E02AF09A95660F771F66
:10434000881FDAF7880F9695879597F908950E9448
:10435000BA210C942B220E941D2238F00E942422A4
:1043600020F0952311F00C9414220C941A2211249D
:104370000C945F220E943C2270F3959FC1F3950F2D
:1043800050E0551F629FF001729FBB27F00DB11DD9
:10439000639FAA27F00DB11DAA1F649F6627B00D69
:1043A000A11D661F829F2227B00DA11D621F739F52
:1043B000B00DA11D621F839FA00D611D221F749F60
:1043C0003327A00D611D231F849F600D211D822FA7
:1043D000762F6A2F11249F5750409AF0F1F08823CE
:1043E0004AF0EE0FFF1FBB1F661F771F881F9150FB
:1043F0005040A9F79E3F510580F00C9414220C9474
:104400005F225F3FE4F3983ED4F3869577956795F6
:10441000B795F795E7959F5FC1F7FE2B880F911D24
:104420009695879597F9089597F99F6780E870E0CA
:1044300060E008959FEF80EC089500240A9416161A
:10444000170618060906089500240A941216130682
:10445000140605060895092E0394000C11F4882310
:1044600052F0BB0F40F4BF2B11F460FF04C06F5F2C
:104470007F4F8F4F9F4F089557FD9058440F551F02
:1044800059F05F3F71F04795880F97FB991F61F0D6
:104490009F3F79F087950895121613061406551F4D
:1044A000F2CF4695F1DF08C0161617061806991FB9
:1044B000F1CF86957105610508940895E894BB27AE
:1044C00066277727CB0197F908950E94A722A59F19
:1044D000900DB49F900DA49F800D911D11240895FF
:1044E0002F923F924F925F926F927F928F929F9204
:1044F000AF92BF92CF92DF92EF92FF920F931F93F2
:10450000CF93DF93CDB7DEB7CA1BDB0B0FB6F894A2
:10451000DEBF0FBECDBF09942A88398848885F84E2
:104520006E847D848C849B84AA84B984C884DF8053
:10453000EE80FD800C811B81AA81B981CE0FD11D37
:104540000FB6F894DEBF0FBECDBFED010895A29F58
:10455000B001B39FC001A39F700D811D1124911D57
:10456000B29F700D811D1124911D08955058BB27D5
:10457000AA270E94CE220C942B220E941D2238F0E2
:104580000E94242220F039F49F3F19F426F40C9461
:104590001A220EF4E095E7FB0C941422E92F0E94F6
:1045A0003C2258F3BA17620773078407950720F077
:1045B00079F4A6F50C945E220EF4E0950B2EBA2F3A
:1045C000A02D0B01B90190010C01CA01A001112419
:1045D000FF27591B99F0593F50F4503E68F11A16C5
:1045E000F040A22F232F342F4427585FF3CF469556
:1045F00037952795A795F0405395C9F77EF41F1678
:10460000BA0B620B730B840BBAF09150A1F0FF0F41
:10461000BB1F661F771F881FC2F70EC0BA0F621F2D
:10462000731F841F48F4879577956795B795F7951D
:104630009E3F08F0B0CF9395880F08F09927EE0FB2
:104640009795879508950E9437230C942B220E94FA
:10465000242258F00E941D2240F029F45F3F29F0E7
:104660000C94142251110C945F220C941A220E9473
:104670003C2268F39923B1F3552391F3951B550B15
:10468000BB27AA2762177307840738F09F5F5F4F25
:10469000220F331F441FAA1FA9F335D00E2E3AF064
:1046A000E0E832D091505040E695001CCAF72BD07C
:1046B000FE2F29D0660F771F881FBB1F26173707CD
:1046C0004807AB07B0E809F0BB0B802DBF01FF27FF
:1046D00093585F4F3AF09E3F510578F00C941422A6
:1046E0000C945F225F3FE4F3983ED4F38695779570
:1046F0006795B795F7959F5FC9F7880F911D9695B8
:10470000879597F90895E1E0660F771F881FBB1F13
:10471000621773078407BA0720F0621B730B840BC0
:10472000BA0BEE1F88F7E09508950E94442288F0A6
:104730009F5798F0B92F9927B751B0F0E1F0660F65
:10474000771F881F991F1AF0BA95C9F714C0B130A6
:1047500091F00E945E22B1E008950C945E22672FD2
:10476000782F8827B85F39F0B93FCCF386957795D5
:104770006795B395D9F73EF49095809570956195BE
:104780007F4F8F4F9F4F0895DB018F939F930E9420
:104790006522BF91AF91A29F800D911DA39F900DA7
:1047A000B29F900D11240895991B79E004C0991FC0
:1047B000961708F0961B881F7A95C9F7809508957B
:1047C000A1E21A2EAA1BBB1BFD010DC0AA1FBB1F15
:1047D000EE1FFF1FA217B307E407F50720F0A21B87
:1047E000B30BE40BF50B661F771F881F991F1A94F4
:1047F00069F760957095809590959B01AC01BD011E
:10480000CF010895052E97FB1EF400940E941924F1
:1048100057FD07D00E94E02307FC03D04EF40C9410
:10482000192450954095309521953F4F4F4F5F4F3C
:10483000089590958095709561957F4F8F4F9F4F0C
:104840000895B7FF0C9465220E946522821B930B8A
:104850000895EE0FFF1F0590F491E02D0994CF937A
:10486000DF938230910510F482E090E0E0914F05F3
:10487000F091500520E030E0C0E0D0E0309711F139
:104880004081518148175907C0F04817590761F412
:1048900082819381209719F09B838A832BC0909308
:1048A000500580934F0526C02115310519F0421798
:1048B000530718F49A01BE01DF01EF010280F38172
:1048C000E02DDCCF2115310509F1281B390B2430EF
:1048D000310590F412968D919C9113976115710595
:1048E00021F0FB019383828304C090935005809351
:1048F0004F05FD01329644C0FD01E20FF31F819385
:104900009193225031092D933C933AC020914D054B
:1049100030914E05232B41F420910601309107017F
:1049200030934E0520934D052091040130910501EF
:104930002115310541F42DB73EB740910801509142
:104940000901241B350BE0914D05F0914E05E2174E
:10495000F307A0F42E1B3F0B2817390778F0AC01A2
:104960004E5F5F4F2417350748F04E0F5F1F50937F
:104970004E0540934D058193919302C0E0E0F0E035
:10498000CF01DF91CF9108950F931F93CF93DF93C2
:10499000009709F48CC0FC013297138212820091B7
:1049A0004F05109150050115110581F420813181C9
:1049B000820F931F20914D0530914E05281739071E
:1049C00079F5F0934E05E0934D0571C0D80140E0B4
:1049D00050E0AE17BF0750F412962D913C911397FB
:1049E000AD012115310509F1D901F3CF9D01DA019E
:1049F0003383228360817181860F971F821793070B
:104A000069F4EC0128813981260F371F2E5F3F4F53
:104A1000318320838A819B8193838283452B29F470
:104A2000F0935005E0934F0542C01396FC93EE932C
:104A30001297ED01499159919E01240F351FE217FC
:104A4000F30771F480819181840F951F029611966E
:104A50009C938E938281938113969C938E9312974D
:104A6000E0E0F0E0D80112968D919C9113970097A9
:104A700019F0F8018C01F6CF8D919C9198012E5F71
:104A80003F4F820F931F20914D0530914E052817FF
:104A9000390769F4309729F41092500510924F05A8
:104AA00002C01382128210934E0500934D05DF91D0
:104AB000CF911F910F910895A0E0B0E0E2E6F5E2FA
:104AC0000C947422EC01009721F4CB010E942F2456
:104AD000B8C0FC01E60FF71F9C0122503109E21714
:104AE000F30708F4ACC0D9010D911C91119706177A
:104AF0001707B0F00530110508F49FC0C8010497EE
:104B00008617970708F499C002501109061B170B66
:104B1000019311936D937C93CF010E94C4248DC0A7
:104B20005B01A01AB10A4C01800E911EA0914F05A5
:104B3000B091500540E050E0E12CF12C109709F4C1
:104B40004AC0A815B905D1F56D907C901197630105
:104B500082E0C80ED11CCA14DB0480F1A3014A19FB
:104B60005B096A0182E0C80ED11C1296BC901297B4
:104B70001396AC91B5E0CB16D10440F0B282A3837A
:104B800051834083D9016D937C930AC00E5F1F4F00
:104B9000C301800F911FF90191838083EB2DFA2FC0
:104BA000E114F10431F0D7011396FC93EE931297C0
:104BB00044C0F0935005E0934F053FC08D919C9108
:104BC00011974817590708F4AC017D0112960D9012
:104BD000BC91A02DB3CF80914D0590914E058815C5
:104BE0009905E1F446175707C8F4809104019091A4
:104BF0000501009741F48DB79EB74091080150918F
:104C00000901841B950BE817F907C8F4F0934E05CA
:104C1000E0934D05F901718360830FC0CB010E94C1
:104C20002F247C01009759F0A801BE010E9438266C
:104C3000CE010E94C424C70104C0CE0102C080E09E
:104C400090E0CDB7DEB7EEE00C94902281E090E0EA
:104C5000F8940C946226FB01DC0104C08D91019054
:104C6000801921F441505040C8F7881B990B0895D2
:104C7000FB01DC0102C001900D9241505040D8F779
:104C80000895FC018191861721F08823D9F799278F
:104C900008953197CF010895FB01DC0101900D9239
:104CA0000020E1F70895FB01DC014150504048F03D
:104CB00001900D920020C9F701C01D924150504053
:084CC000E0F70895F894FFCF1E
:104CC800FFFFFFFF0000510580000000000000000A
:104CD8006E14C014390184144D148C1496140000F9
:104CE8000000C10B2E0B590B080C8A0B680B7C0BB0
:104CF80000000000DC142E0B390138010000000010
:104D08009E016E0139010C0130011C010D010000EA
:104D18000000340C2E0B39013801340C340C340CDF
:104D280000000000340C2E0B390138012E74787401
:104D3800002F000D0A004A756E20313020323031C4
:0C4D4800380031363A35363A343100007C
:00000001FF
